{
    "contractName": "MultiTokenStakingV2",
    "abi": [
        {
            "inputs": [
                {
                    "internalType": "address",
                    "name": "_baseToken",
                    "type": "address"
                },
                {
                    "internalType": "uint256",
                    "name": "_returnRate",
                    "type": "uint256"
                },
                {
                    "internalType": "uint256",
                    "name": "_minStakeDuration",
                    "type": "uint256"
                },
                {
                    "internalType": "uint256",
                    "name": "_minStakeAmount",
                    "type": "uint256"
                },
                {
                    "internalType": "address",
                    "name": "_rewardNFT",
                    "type": "address"
                }
            ],
            "stateMutability": "nonpayable",
            "type": "constructor"
        },
        {
            "inputs": [
                {
                    "internalType": "address",
                    "name": "owner",
                    "type": "address"
                }
            ],
            "name": "OwnableInvalidOwner",
            "type": "error"
        },
        {
            "inputs": [
                {
                    "internalType": "address",
                    "name": "account",
                    "type": "address"
                }
            ],
            "name": "OwnableUnauthorizedAccount",
            "type": "error"
        },
        {
            "inputs": [],
            "name": "ReentrancyGuardReentrantCall",
            "type": "error"
        },
        {
            "anonymous": false,
            "inputs": [
                {
                    "indexed": true,
                    "internalType": "address",
                    "name": "user",
                    "type": "address"
                },
                {
                    "indexed": false,
                    "internalType": "uint256",
                    "name": "principal",
                    "type": "uint256"
                },
                {
                    "indexed": false,
                    "internalType": "uint256",
                    "name": "interest",
                    "type": "uint256"
                },
                {
                    "indexed": false,
                    "internalType": "uint256",
                    "name": "timestamp",
                    "type": "uint256"
                }
            ],
            "name": "Claimed",
            "type": "event"
        },
        {
            "anonymous": false,
            "inputs": [
                {
                    "indexed": true,
                    "internalType": "address",
                    "name": "user",
                    "type": "address"
                },
                {
                    "indexed": false,
                    "internalType": "uint256",
                    "name": "tokenId",
                    "type": "uint256"
                }
            ],
            "name": "NFTRewarded",
            "type": "event"
        },
        {
            "anonymous": false,
            "inputs": [
                {
                    "indexed": true,
                    "internalType": "address",
                    "name": "previousOwner",
                    "type": "address"
                },
                {
                    "indexed": true,
                    "internalType": "address",
                    "name": "newOwner",
                    "type": "address"
                }
            ],
            "name": "OwnershipTransferred",
            "type": "event"
        },
        {
            "anonymous": false,
            "inputs": [
                {
                    "indexed": true,
                    "internalType": "address",
                    "name": "user",
                    "type": "address"
                },
                {
                    "indexed": false,
                    "internalType": "uint256",
                    "name": "amount",
                    "type": "uint256"
                },
                {
                    "indexed": false,
                    "internalType": "uint256",
                    "name": "startTime",
                    "type": "uint256"
                },
                {
                    "indexed": false,
                    "internalType": "uint256",
                    "name": "totalBaseStaked",
                    "type": "uint256"
                }
            ],
            "name": "Staked",
            "type": "event"
        },
        {
            "inputs": [],
            "name": "baseToken",
            "outputs": [
                {
                    "internalType": "contract IERC20Extended",
                    "name": "",
                    "type": "address"
                }
            ],
            "stateMutability": "view",
            "type": "function"
        },
        {
            "inputs": [],
            "name": "claim",
            "outputs": [],
            "stateMutability": "nonpayable",
            "type": "function"
        },
        {
            "inputs": [
                {
                    "internalType": "contract IERC20[]",
                    "name": "_otherTokens",
                    "type": "address[]"
                },
                {
                    "internalType": "uint256[]",
                    "name": "_ratios",
                    "type": "uint256[]"
                }
            ],
            "name": "configureStaking",
            "outputs": [],
            "stateMutability": "nonpayable",
            "type": "function"
        },
        {
            "inputs": [
                {
                    "internalType": "uint256",
                    "name": "_returnRate",
                    "type": "uint256"
                },
                {
                    "internalType": "uint256",
                    "name": "_minStakeAmount",
                    "type": "uint256"
                },
                {
                    "internalType": "uint256",
                    "name": "_minStakeDuration",
                    "type": "uint256"
                }
            ],
            "name": "configureStakingParameters",
            "outputs": [],
            "stateMutability": "nonpayable",
            "type": "function"
        },
        {
            "inputs": [
                {
                    "internalType": "address",
                    "name": "_user",
                    "type": "address"
                }
            ],
            "name": "getStakingInfo",
            "outputs": [
                {
                    "internalType": "uint256",
                    "name": "startTime",
                    "type": "uint256"
                },
                {
                    "internalType": "uint256",
                    "name": "lastClaimTime",
                    "type": "uint256"
                },
                {
                    "internalType": "uint256[]",
                    "name": "amounts",
                    "type": "uint256[]"
                },
                {
                    "internalType": "uint256",
                    "name": "pendingInterest",
                    "type": "uint256"
                },
                {
                    "internalType": "uint256",
                    "name": "currentReturnRate",
                    "type": "uint256"
                }
            ],
            "stateMutability": "view",
            "type": "function"
        },
        {
            "inputs": [],
            "name": "getTokenInfo",
            "outputs": [
                {
                    "internalType": "contract IERC20[]",
                    "name": "tokens",
                    "type": "address[]"
                },
                {
                    "internalType": "uint256[]",
                    "name": "ratios",
                    "type": "uint256[]"
                },
                {
                    "internalType": "uint256",
                    "name": "currentReturnRate",
                    "type": "uint256"
                },
                {
                    "internalType": "uint256",
                    "name": "currentMinStakeDuration",
                    "type": "uint256"
                },
                {
                    "internalType": "uint256",
                    "name": "currentMinStakeAmount",
                    "type": "uint256"
                },
                {
                    "internalType": "address",
                    "name": "rewardNFTAddress",
                    "type": "address"
                }
            ],
            "stateMutability": "view",
            "type": "function"
        },
        {
            "inputs": [],
            "name": "minStakeAmount",
            "outputs": [
                {
                    "internalType": "uint256",
                    "name": "",
                    "type": "uint256"
                }
            ],
            "stateMutability": "view",
            "type": "function"
        },
        {
            "inputs": [],
            "name": "minStakeDuration",
            "outputs": [
                {
                    "internalType": "uint256",
                    "name": "",
                    "type": "uint256"
                }
            ],
            "stateMutability": "view",
            "type": "function"
        },
        {
            "inputs": [
                {
                    "internalType": "contract IERC20",
                    "name": "",
                    "type": "address"
                }
            ],
            "name": "otherTokenRatios",
            "outputs": [
                {
                    "internalType": "uint256",
                    "name": "",
                    "type": "uint256"
                }
            ],
            "stateMutability": "view",
            "type": "function"
        },
        {
            "inputs": [
                {
                    "internalType": "uint256",
                    "name": "",
                    "type": "uint256"
                }
            ],
            "name": "otherTokens",
            "outputs": [
                {
                    "internalType": "contract IERC20",
                    "name": "",
                    "type": "address"
                }
            ],
            "stateMutability": "view",
            "type": "function"
        },
        {
            "inputs": [],
            "name": "owner",
            "outputs": [
                {
                    "internalType": "address",
                    "name": "",
                    "type": "address"
                }
            ],
            "stateMutability": "view",
            "type": "function"
        },
        {
            "inputs": [],
            "name": "renounceOwnership",
            "outputs": [],
            "stateMutability": "nonpayable",
            "type": "function"
        },
        {
            "inputs": [],
            "name": "returnRate",
            "outputs": [
                {
                    "internalType": "uint256",
                    "name": "",
                    "type": "uint256"
                }
            ],
            "stateMutability": "view",
            "type": "function"
        },
        {
            "inputs": [],
            "name": "rewardNFT",
            "outputs": [
                {
                    "internalType": "contract IERC721",
                    "name": "",
                    "type": "address"
                }
            ],
            "stateMutability": "view",
            "type": "function"
        },
        {
            "inputs": [
                {
                    "internalType": "uint256",
                    "name": "_baseAmount",
                    "type": "uint256"
                }
            ],
            "name": "stake",
            "outputs": [],
            "stateMutability": "nonpayable",
            "type": "function"
        },
        {
            "inputs": [
                {
                    "internalType": "address",
                    "name": "",
                    "type": "address"
                }
            ],
            "name": "stakes",
            "outputs": [
                {
                    "internalType": "uint256",
                    "name": "startTime",
                    "type": "uint256"
                },
                {
                    "internalType": "uint256",
                    "name": "lastClaimTime",
                    "type": "uint256"
                }
            ],
            "stateMutability": "view",
            "type": "function"
        },
        {
            "inputs": [
                {
                    "internalType": "contract IERC20",
                    "name": "",
                    "type": "address"
                }
            ],
            "name": "tokenDecimals",
            "outputs": [
                {
                    "internalType": "uint8",
                    "name": "",
                    "type": "uint8"
                }
            ],
            "stateMutability": "view",
            "type": "function"
        },
        {
            "inputs": [],
            "name": "totalBaseStaked",
            "outputs": [
                {
                    "internalType": "uint256",
                    "name": "",
                    "type": "uint256"
                }
            ],
            "stateMutability": "view",
            "type": "function"
        },
        {
            "inputs": [
                {
                    "internalType": "address",
                    "name": "newOwner",
                    "type": "address"
                }
            ],
            "name": "transferOwnership",
            "outputs": [],
            "stateMutability": "nonpayable",
            "type": "function"
        },
        {
            "inputs": [
                {
                    "internalType": "uint256",
                    "name": "_baseAmount",
                    "type": "uint256"
                }
            ],
            "name": "withdrawTokens",
            "outputs": [],
            "stateMutability": "nonpayable",
            "type": "function"
        }
    ],
    "bytecode": "608060405234801561000f575f80fd5b50604051611a9f380380611a9f83398101604081905261002e916101c3565b338061005357604051631e4fbdf760e01b81525f600482015260240160405180910390fd5b61005c81610159565b5060018055600280546001600160a01b038088166001600160a01b031992831681179093556004878155600380549286169290931691909117909155600585905560068490556040805163313ce56760e01b8152905163313ce567928281019260209291908290030181865afa9250505080156100f6575060408051601f3d908101601f191682019092526100f391810190610211565b60015b610123576002546001600160a01b03165f908152600a60205260409020805460ff1916601217905561014f565b6002546001600160a01b03165f908152600a60205260409020805460ff191660ff929092169190911790555b5050505050610238565b5f80546001600160a01b038381166001600160a01b0319831681178455604051919092169283917f8be0079c531659141344cd1fd0a4f28419497f9722a3daafe3b4186f6b6457e09190a35050565b80516001600160a01b03811681146101be575f80fd5b919050565b5f805f805f60a086880312156101d7575f80fd5b6101e0866101a8565b60208701516040880151606089015192975090955093509150610205608087016101a8565b90509295509295909350565b5f60208284031215610221575f80fd5b815160ff81168114610231575f80fd5b9392505050565b61185a806102455f395ff3fe608060405234801561000f575f80fd5b5060043610610127575f3560e01c8063a694fc3a116100a9578063c55dae631161006e578063c55dae63146102a7578063c8ea4dd6146102ba578063d7c3820a146102cd578063f1887684146102e0578063f2fde38b146102e9575f80fd5b8063a694fc3a1461023a578063aa4704f31461024d578063abb1dc4414610271578063adb842331461028b578063c04a2e171461029e575f80fd5b8063715018a6116100ef578063715018a6146101be5780637c2ffbb3146101c65780638da5cb5b146101cf5780638ee573ac146101f357806392d879cf14610227575f80fd5b806316934fc41461012b578063315a095d1461016b5780634e71d92d146101805780635fec5c64146101885780636b731db41461019f575b5f80fd5b610151610139366004611535565b60086020525f90815260409020805460019091015482565b604080519283526020830191909152015b60405180910390f35b61017e610179366004611557565b6102fc565b005b61017e6106ef565b61019160055481565b604051908152602001610162565b6101916101ad366004611535565b60096020525f908152604090205481565b61017e6109f0565b61019160045481565b5f546001600160a01b03165b6040516001600160a01b039091168152602001610162565b610215610201366004611535565b600a6020525f908152604090205460ff1681565b60405160ff9091168152602001610162565b6101db610235366004611557565b610a01565b61017e610248366004611557565b610a29565b61026061025b366004611535565b610e3c565b6040516101629594939291906115a8565b610279610fbf565b604051610162969594939291906115da565b61017e6102993660046116ae565b6111d1565b61019160075481565b6002546101db906001600160a01b031681565b6003546101db906001600160a01b031681565b61017e6102db36600461171a565b61142c565b61019160065481565b61017e6102f7366004611535565b611442565b61030461147c565b5f81116103675760405162461bcd60e51b815260206004820152602660248201527f576974686472617720616d6f756e74206d75737420626520677265617465722060448201526507468616e20360d41b60648201526084015b60405180910390fd5b6002546040516370a0823160e01b81523060048201525f916001600160a01b0316906370a0823190602401602060405180830381865afa1580156103ad573d5f803e3d5ffd5b505050506040513d601f19601f820116820180604052508101906103d19190611743565b9050808211156103df578091505b5f5b600b54811015610596575f600b82815481106103ff576103ff61175a565b5f9182526020808320909101546001600160a01b031680835260099091526040822054909250670de0b6b3a7640000906104399087611782565b610443919061179f565b6040516370a0823160e01b81523060048201529091505f906001600160a01b038416906370a0823190602401602060405180830381865afa15801561048a573d5f803e3d5ffd5b505050506040513d601f19601f820116820180604052508101906104ae9190611743565b9050808211156104bc578091505b6040516370a0823160e01b815230600482015282906001600160a01b038516906370a0823190602401602060405180830381865afa158015610500573d5f803e3d5ffd5b505050506040513d601f19601f820116820180604052508101906105249190611743565b101561058b5760405162461bcd60e51b815260206004820152603060248201527f576974686472617720616d6f756e7420657863656564732062616c616e63652060448201526f666f72206f7468657220746f6b656e7360801b606482015260840161035e565b5050506001016103e1565b5060025460405163a9059cbb60e01b8152336004820152602481018490526001600160a01b039091169063a9059cbb906044016020604051808303815f875af11580156105e5573d5f803e3d5ffd5b505050506040513d601f19601f8201168201806040525081019061060991906117be565b505f5b600b548110156106ea575f600b828154811061062a5761062a61175a565b5f9182526020808320909101546001600160a01b031680835260099091526040822054909250670de0b6b3a7640000906106649087611782565b61066e919061179f565b60405163a9059cbb60e01b8152336004820152602481018290529091506001600160a01b0383169063a9059cbb906044016020604051808303815f875af11580156106bb573d5f803e3d5ffd5b505050506040513d601f19601f820116820180604052508101906106df91906117be565b50505060010161060c565b505050565b6106f76114a8565b335f908152600860209081526040808320600280546001600160a01b0316855281019092529091205461075f5760405162461bcd60e51b815260206004820152601060248201526f139bc81cdd185ad95908185b5bdd5b9d60821b604482015260640161035e565b600554815461076e91906117dd565b4210156107b65760405162461bcd60e51b815260206004820152601660248201527514dd185ad948191d5c985d1a5bdb881b9bdd081b595d60521b604482015260640161035e565b600280546001600160a01b03165f9081529082016020526040812054600454909190612710906107e69084611782565b6107f0919061179f565b600280546001600160a01b039081165f908152828701602052604081205590549192501663a9059cbb3361082484866117dd565b6040516001600160e01b031960e085901b1681526001600160a01b03909216600483015260248201526044016020604051808303815f875af115801561086c573d5f803e3d5ffd5b505050506040513d601f19601f8201168201806040525081019061089091906117be565b505f5b600b5481101561099f575f600b82815481106108b1576108b161175a565b5f9182526020808320909101546001600160a01b03168083526002880190915260408220546004549193509190612710906108ec9084611782565b6108f6919061179f565b6001600160a01b0384165f81815260028a01602052604081205590915063a9059cbb3361092384866117dd565b6040516001600160e01b031960e085901b1681526001600160a01b03909216600483015260248201526044016020604051808303815f875af115801561096b573d5f803e3d5ffd5b505050506040513d601f19601f8201168201806040525081019061098f91906117be565b5050600190920191506108939050565b5060408051838152602081018390524281830152905133917f9cdcf2f7714cca3508c7f0110b04a90a80a3a8dd0e35de99689db74d28c5383e919081900360600190a25050506109ee60018055565b565b6109f861147c565b6109ee5f6114d2565b600b8181548110610a10575f80fd5b5f918252602090912001546001600160a01b0316905081565b610a316114a8565b600654811015610aa25760405162461bcd60e51b815260206004820152603660248201527f5374616b6520616d6f756e74206d7573742062652067726561746572207468616044820152751b881b5a5b9a5b5d5b481cdd185ad948185b5bdd5b9d60521b606482015260840161035e565b335f908152600860205260408120600b5490919067ffffffffffffffff811115610ace57610ace6117f0565b604051908082528060200260200182016040528015610af7578160200160208202803683370190505b5090505f5b600b54811015610bfd575f600b8281548110610b1a57610b1a61175a565b5f9182526020808320909101546001600160a01b031680835260099091526040822054909250670de0b6b3a764000090610b549088611782565b610b5e919061179f565b905080848481518110610b7357610b7361175a565b60209081029190910101526040516323b872dd60e01b8152336004820152306024820152604481018290526001600160a01b038316906323b872dd906064016020604051808303815f875af1158015610bce573d5f803e3d5ffd5b505050506040513d601f19601f82011682018060405250810190610bf291906117be565b505050600101610afc565b506002546040516323b872dd60e01b8152336004820152306024820152604481018590526001600160a01b03909116906323b872dd906064016020604051808303815f875af1158015610c52573d5f803e3d5ffd5b505050506040513d601f19601f82011682018060405250810190610c7691906117be565b50600280546001600160a01b03165f908152908301602052604081208054859290610ca29084906117dd565b909155505f90505b600b54811015610d2657818181518110610cc657610cc661175a565b6020026020010151836002015f600b8481548110610ce657610ce661175a565b5f9182526020808320909101546001600160a01b0316835282019290925260400181208054909190610d199084906117dd565b9091555050600101610caa565b508260075f828254610d3891906117dd565b909155505081545f03610d49574282555b81600101545f03610d5b574260018301555b6003546040516340d097c360e01b81523360048201526001600160a01b03909116906340d097c3906024015f604051808303815f87803b158015610d9d575f80fd5b505af1158015610daf573d5f803e3d5ffd5b50506040515f81523392507f8c4b0bd0847d940a8f64327b75ae300814f43d12e16f2f0b6da686d784f00beb915060200160405180910390a2815460075460408051868152602081019390935282015233907fb4caaf29adda3eefee3ad552a8e85058589bf834c7466cae4ee58787f70589ed9060600160405180910390a25050610e3960018055565b50565b6001600160a01b0381165f908152600860205260408120600b548291606091839182918290610e6c9060016117dd565b90505f8167ffffffffffffffff811115610e8857610e886117f0565b604051908082528060200260200182016040528015610eb1578160200160208202803683370190505b50600280546001600160a01b03165f9081529085016020526040812054825192935091839190610ee357610ee361175a565b6020026020010181815250505f5b600b54811015610f6657836002015f600b8381548110610f1357610f1361175a565b5f9182526020808320909101546001600160a01b0316835282019290925260400190205482610f438360016117dd565b81518110610f5357610f5361175a565b6020908102919091010152600101610ef1565b50600454600280546001600160a01b03165f9081529085016020526040812054909161271091610f969190611782565b610fa0919061179f565b8454600190950154600454959c909b5092995097509295509350505050565b6060805f805f805f600b805490506001610fd991906117dd565b90505f8167ffffffffffffffff811115610ff557610ff56117f0565b60405190808252806020026020018201604052801561101e578160200160208202803683370190505b5090505f8267ffffffffffffffff81111561103b5761103b6117f0565b604051908082528060200260200182016040528015611064578160200160208202803683370190505b5060025483519192506001600160a01b03169083905f906110875761108761175a565b60200260200101906001600160a01b031690816001600160a01b031681525050670de0b6b3a7640000815f815181106110c2576110c261175a565b6020026020010181815250505f5b600b548110156111a657600b81815481106110ed576110ed61175a565b5f918252602090912001546001600160a01b03168361110d8360016117dd565b8151811061111d5761111d61175a565b60200260200101906001600160a01b031690816001600160a01b03168152505060095f600b83815481106111535761115361175a565b5f9182526020808320909101546001600160a01b03168352820192909252604001902054826111838360016117dd565b815181106111935761119361175a565b60209081029190910101526001016110d0565b50600454600554600654600354949c939b50919950975095506001600160a01b039091169350915050565b6111d961147c565b8281146112285760405162461bcd60e51b815260206004820152601f60248201527f546f6b656e20616e6420726174696f206c656e677468206d69736d6174636800604482015260640161035e565b5f5b83811015611425575f8585838181106112455761124561175a565b905060200201602081019061125a9190611535565b905060095f8787858181106112715761127161175a565b90506020020160208101906112869190611535565b6001600160a01b03166001600160a01b031681526020019081526020015f20545f0361130757600b8686848181106112c0576112c061175a565b90506020020160208101906112d59190611535565b81546001810183555f928352602090922090910180546001600160a01b0319166001600160a01b039092169190911790555b8383838181106113195761131961175a565b9050602002013560095f8888868181106113355761133561175a565b905060200201602081019061134a9190611535565b6001600160a01b03166001600160a01b031681526020019081526020015f2081905550806001600160a01b031663313ce5676040518163ffffffff1660e01b8152600401602060405180830381865afa9250505080156113c7575060408051601f3d908101601f191682019092526113c491810190611804565b60015b6113f2576001600160a01b0381165f908152600a60205260409020805460ff1916601217905561141c565b6001600160a01b0382165f908152600a60205260409020805460ff191660ff929092169190911790555b5060010161122a565b5050505050565b61143461147c565b600492909255600655600555565b61144a61147c565b6001600160a01b03811661147357604051631e4fbdf760e01b81525f600482015260240161035e565b610e39816114d2565b5f546001600160a01b031633146109ee5760405163118cdaa760e01b815233600482015260240161035e565b6002600154036114cb57604051633ee5aeb560e01b815260040160405180910390fd5b6002600155565b5f80546001600160a01b038381166001600160a01b0319831681178455604051919092169283917f8be0079c531659141344cd1fd0a4f28419497f9722a3daafe3b4186f6b6457e09190a35050565b6001600160a01b0381168114610e39575f80fd5b5f60208284031215611545575f80fd5b813561155081611521565b9392505050565b5f60208284031215611567575f80fd5b5035919050565b5f8151808452602084019350602083015f5b8281101561159e578151865260209586019590910190600101611580565b5093949350505050565b85815284602082015260a060408201525f6115c660a083018661156e565b606083019490945250608001529392505050565b60c080825287519082018190525f90602089019060e0840190835b8181101561161c5783516001600160a01b03168352602093840193909201916001016115f5565b50508381036020850152611630818a61156e565b9250505085604083015284606083015283608083015261165b60a08301846001600160a01b03169052565b979650505050505050565b5f8083601f840112611676575f80fd5b50813567ffffffffffffffff81111561168d575f80fd5b6020830191508360208260051b85010111156116a7575f80fd5b9250929050565b5f805f80604085870312156116c1575f80fd5b843567ffffffffffffffff8111156116d7575f80fd5b6116e387828801611666565b909550935050602085013567ffffffffffffffff811115611702575f80fd5b61170e87828801611666565b95989497509550505050565b5f805f6060848603121561172c575f80fd5b505081359360208301359350604090920135919050565b5f60208284031215611753575f80fd5b5051919050565b634e487b7160e01b5f52603260045260245ffd5b634e487b7160e01b5f52601160045260245ffd5b80820281158282048414176117995761179961176e565b92915050565b5f826117b957634e487b7160e01b5f52601260045260245ffd5b500490565b5f602082840312156117ce575f80fd5b81518015158114611550575f80fd5b808201808211156117995761179961176e565b634e487b7160e01b5f52604160045260245ffd5b5f60208284031215611814575f80fd5b815160ff81168114611550575f80fdfea2646970667358221220ded2af32751ba6aa9bf0da1541d9ed5e5f12838dce2250265847491d63e0a53064736f6c634300081a0033",
    "sourcePath": "/Users/marco/Dev/Projects/Nodejs/Hardhat_NexGami/contracts/MultiTokenStakingV2.sol",
    "compiler": {
        "name": "solc",
        "version": "0.8.26+commit.8a97fa7a"
    },
    "functionHashes": {
        "baseToken()": "c55dae63",
        "claim()": "4e71d92d",
        "configureStaking(address[],uint256[])": "adb84233",
        "configureStakingParameters(uint256,uint256,uint256)": "d7c3820a",
        "getStakingInfo(address)": "aa4704f3",
        "getTokenInfo()": "abb1dc44",
        "minStakeAmount()": "f1887684",
        "minStakeDuration()": "5fec5c64",
        "otherTokenRatios(address)": "6b731db4",
        "otherTokens(uint256)": "92d879cf",
        "owner()": "8da5cb5b",
        "renounceOwnership()": "715018a6",
        "returnRate()": "7c2ffbb3",
        "rewardNFT()": "c8ea4dd6",
        "stake(uint256)": "a694fc3a",
        "stakes(address)": "16934fc4",
        "tokenDecimals(address)": "8ee573ac",
        "totalBaseStaked()": "c04a2e17",
        "transferOwnership(address)": "f2fde38b",
        "withdrawTokens(uint256)": "315a095d"
    },
    "gasEstimates": {
        "creation": {
            "codeDepositCost": "1246800",
            "executionCost": "infinite",
            "totalCost": "infinite"
        },
        "external": {
            "baseToken()": "2358",
            "claim()": "infinite",
            "configureStaking(address[],uint256[])": "infinite",
            "configureStakingParameters(uint256,uint256,uint256)": "68811",
            "getStakingInfo(address)": "infinite",
            "getTokenInfo()": "infinite",
            "minStakeAmount()": "2382",
            "minStakeDuration()": "2384",
            "otherTokenRatios(address)": "2622",
            "otherTokens(uint256)": "4722",
            "owner()": "2385",
            "renounceOwnership()": "infinite",
            "returnRate()": "2339",
            "rewardNFT()": "2380",
            "stake(uint256)": "infinite",
            "stakes(address)": "4662",
            "tokenDecimals(address)": "2614",
            "totalBaseStaked()": "2405",
            "transferOwnership(address)": "infinite",
            "withdrawTokens(uint256)": "infinite"
        }
    }
}