{
    "contractName": "MultiTokenStaking",
    "abi": [
        {
            "inputs": [
                {
                    "internalType": "address",
                    "name": "_baseToken",
                    "type": "address"
                },
                {
                    "internalType": "address",
                    "name": "_rewardToken",
                    "type": "address"
                },
                {
                    "internalType": "uint256",
                    "name": "_annualInterestRate",
                    "type": "uint256"
                },
                {
                    "internalType": "uint256",
                    "name": "_nftThreshold",
                    "type": "uint256"
                },
                {
                    "internalType": "uint256",
                    "name": "_minStakeDuration",
                    "type": "uint256"
                },
                {
                    "internalType": "uint256",
                    "name": "_minStakeAmount",
                    "type": "uint256"
                }
            ],
            "stateMutability": "nonpayable",
            "type": "constructor"
        },
        {
            "inputs": [
                {
                    "internalType": "address",
                    "name": "owner",
                    "type": "address"
                }
            ],
            "name": "OwnableInvalidOwner",
            "type": "error"
        },
        {
            "inputs": [
                {
                    "internalType": "address",
                    "name": "account",
                    "type": "address"
                }
            ],
            "name": "OwnableUnauthorizedAccount",
            "type": "error"
        },
        {
            "inputs": [],
            "name": "ReentrancyGuardReentrantCall",
            "type": "error"
        },
        {
            "anonymous": false,
            "inputs": [
                {
                    "indexed": true,
                    "internalType": "address",
                    "name": "user",
                    "type": "address"
                },
                {
                    "indexed": false,
                    "internalType": "uint256",
                    "name": "tokenId",
                    "type": "uint256"
                }
            ],
            "name": "NFTRewarded",
            "type": "event"
        },
        {
            "anonymous": false,
            "inputs": [
                {
                    "indexed": true,
                    "internalType": "address",
                    "name": "previousOwner",
                    "type": "address"
                },
                {
                    "indexed": true,
                    "internalType": "address",
                    "name": "newOwner",
                    "type": "address"
                }
            ],
            "name": "OwnershipTransferred",
            "type": "event"
        },
        {
            "anonymous": false,
            "inputs": [
                {
                    "indexed": true,
                    "internalType": "address",
                    "name": "user",
                    "type": "address"
                },
                {
                    "indexed": false,
                    "internalType": "uint256",
                    "name": "rewardAmount",
                    "type": "uint256"
                },
                {
                    "indexed": false,
                    "internalType": "uint256",
                    "name": "timestamp",
                    "type": "uint256"
                }
            ],
            "name": "RewardClaimed",
            "type": "event"
        },
        {
            "anonymous": false,
            "inputs": [
                {
                    "indexed": true,
                    "internalType": "address",
                    "name": "user",
                    "type": "address"
                },
                {
                    "indexed": false,
                    "internalType": "uint256",
                    "name": "amount",
                    "type": "uint256"
                },
                {
                    "indexed": false,
                    "internalType": "uint256",
                    "name": "startTime",
                    "type": "uint256"
                },
                {
                    "indexed": false,
                    "internalType": "uint256",
                    "name": "totalBaseStaked",
                    "type": "uint256"
                },
                {
                    "indexed": false,
                    "internalType": "uint8",
                    "name": "nftStatus",
                    "type": "uint8"
                }
            ],
            "name": "Staked",
            "type": "event"
        },
        {
            "anonymous": false,
            "inputs": [
                {
                    "indexed": true,
                    "internalType": "address",
                    "name": "user",
                    "type": "address"
                },
                {
                    "indexed": false,
                    "internalType": "uint256",
                    "name": "amount",
                    "type": "uint256"
                },
                {
                    "indexed": false,
                    "internalType": "uint256",
                    "name": "totalBaseStaked",
                    "type": "uint256"
                },
                {
                    "indexed": false,
                    "internalType": "uint8",
                    "name": "nftStatus",
                    "type": "uint8"
                }
            ],
            "name": "Unstaked",
            "type": "event"
        },
        {
            "inputs": [],
            "name": "annualInterestRate",
            "outputs": [
                {
                    "internalType": "uint256",
                    "name": "",
                    "type": "uint256"
                }
            ],
            "stateMutability": "view",
            "type": "function"
        },
        {
            "inputs": [],
            "name": "baseToken",
            "outputs": [
                {
                    "internalType": "contract IERC20Extended",
                    "name": "",
                    "type": "address"
                }
            ],
            "stateMutability": "view",
            "type": "function"
        },
        {
            "inputs": [],
            "name": "claimReward",
            "outputs": [],
            "stateMutability": "nonpayable",
            "type": "function"
        },
        {
            "inputs": [
                {
                    "internalType": "contract IERC20[]",
                    "name": "_otherTokens",
                    "type": "address[]"
                },
                {
                    "internalType": "uint256[]",
                    "name": "_ratios",
                    "type": "uint256[]"
                },
                {
                    "internalType": "address",
                    "name": "_rewardNFT",
                    "type": "address"
                }
            ],
            "name": "configureStaking",
            "outputs": [],
            "stateMutability": "nonpayable",
            "type": "function"
        },
        {
            "inputs": [
                {
                    "internalType": "uint256",
                    "name": "_annualInterestRate",
                    "type": "uint256"
                },
                {
                    "internalType": "uint256",
                    "name": "_minStakeAmount",
                    "type": "uint256"
                },
                {
                    "internalType": "uint256",
                    "name": "_minStakeDuration",
                    "type": "uint256"
                }
            ],
            "name": "configureStakingParameters",
            "outputs": [],
            "stateMutability": "nonpayable",
            "type": "function"
        },
        {
            "inputs": [
                {
                    "internalType": "address",
                    "name": "_user",
                    "type": "address"
                }
            ],
            "name": "getStakingInfo",
            "outputs": [
                {
                    "internalType": "uint256",
                    "name": "startTime",
                    "type": "uint256"
                },
                {
                    "internalType": "uint256",
                    "name": "lastClaimTime",
                    "type": "uint256"
                },
                {
                    "internalType": "uint256[]",
                    "name": "amounts",
                    "type": "uint256[]"
                },
                {
                    "internalType": "uint256",
                    "name": "pendingReward",
                    "type": "uint256"
                },
                {
                    "internalType": "uint8",
                    "name": "nftStatus",
                    "type": "uint8"
                },
                {
                    "internalType": "uint256",
                    "name": "currentAnnualInterestRate",
                    "type": "uint256"
                }
            ],
            "stateMutability": "view",
            "type": "function"
        },
        {
            "inputs": [],
            "name": "getTokenInfo",
            "outputs": [
                {
                    "internalType": "contract IERC20[]",
                    "name": "tokens",
                    "type": "address[]"
                },
                {
                    "internalType": "uint256[]",
                    "name": "ratios",
                    "type": "uint256[]"
                },
                {
                    "internalType": "uint256",
                    "name": "currentAnnualInterestRate",
                    "type": "uint256"
                },
                {
                    "internalType": "uint256",
                    "name": "currentNftThreshold",
                    "type": "uint256"
                },
                {
                    "internalType": "uint256",
                    "name": "currentMinStakeDuration",
                    "type": "uint256"
                },
                {
                    "internalType": "uint256",
                    "name": "currentMinStakeAmount",
                    "type": "uint256"
                },
                {
                    "internalType": "address",
                    "name": "rewardTokenAddress",
                    "type": "address"
                },
                {
                    "internalType": "address",
                    "name": "rewardNFTAddress",
                    "type": "address"
                }
            ],
            "stateMutability": "view",
            "type": "function"
        },
        {
            "inputs": [],
            "name": "minStakeAmount",
            "outputs": [
                {
                    "internalType": "uint256",
                    "name": "",
                    "type": "uint256"
                }
            ],
            "stateMutability": "view",
            "type": "function"
        },
        {
            "inputs": [],
            "name": "minStakeDuration",
            "outputs": [
                {
                    "internalType": "uint256",
                    "name": "",
                    "type": "uint256"
                }
            ],
            "stateMutability": "view",
            "type": "function"
        },
        {
            "inputs": [],
            "name": "nftThreshold",
            "outputs": [
                {
                    "internalType": "uint256",
                    "name": "",
                    "type": "uint256"
                }
            ],
            "stateMutability": "view",
            "type": "function"
        },
        {
            "inputs": [
                {
                    "internalType": "contract IERC20",
                    "name": "",
                    "type": "address"
                }
            ],
            "name": "otherTokenRatios",
            "outputs": [
                {
                    "internalType": "uint256",
                    "name": "",
                    "type": "uint256"
                }
            ],
            "stateMutability": "view",
            "type": "function"
        },
        {
            "inputs": [
                {
                    "internalType": "uint256",
                    "name": "",
                    "type": "uint256"
                }
            ],
            "name": "otherTokens",
            "outputs": [
                {
                    "internalType": "contract IERC20",
                    "name": "",
                    "type": "address"
                }
            ],
            "stateMutability": "view",
            "type": "function"
        },
        {
            "inputs": [],
            "name": "owner",
            "outputs": [
                {
                    "internalType": "address",
                    "name": "",
                    "type": "address"
                }
            ],
            "stateMutability": "view",
            "type": "function"
        },
        {
            "inputs": [],
            "name": "renounceOwnership",
            "outputs": [],
            "stateMutability": "nonpayable",
            "type": "function"
        },
        {
            "inputs": [],
            "name": "rewardNFT",
            "outputs": [
                {
                    "internalType": "contract IERC721",
                    "name": "",
                    "type": "address"
                }
            ],
            "stateMutability": "view",
            "type": "function"
        },
        {
            "inputs": [],
            "name": "rewardToken",
            "outputs": [
                {
                    "internalType": "contract IERC20",
                    "name": "",
                    "type": "address"
                }
            ],
            "stateMutability": "view",
            "type": "function"
        },
        {
            "inputs": [
                {
                    "internalType": "uint256",
                    "name": "_baseAmount",
                    "type": "uint256"
                }
            ],
            "name": "stake",
            "outputs": [],
            "stateMutability": "nonpayable",
            "type": "function"
        },
        {
            "inputs": [
                {
                    "internalType": "address",
                    "name": "",
                    "type": "address"
                }
            ],
            "name": "stakes",
            "outputs": [
                {
                    "internalType": "uint256",
                    "name": "startTime",
                    "type": "uint256"
                },
                {
                    "internalType": "uint256",
                    "name": "lastClaimTime",
                    "type": "uint256"
                },
                {
                    "internalType": "bool",
                    "name": "nftClaimed",
                    "type": "bool"
                }
            ],
            "stateMutability": "view",
            "type": "function"
        },
        {
            "inputs": [
                {
                    "internalType": "contract IERC20",
                    "name": "",
                    "type": "address"
                }
            ],
            "name": "tokenDecimals",
            "outputs": [
                {
                    "internalType": "uint8",
                    "name": "",
                    "type": "uint8"
                }
            ],
            "stateMutability": "view",
            "type": "function"
        },
        {
            "inputs": [],
            "name": "totalBaseStaked",
            "outputs": [
                {
                    "internalType": "uint256",
                    "name": "",
                    "type": "uint256"
                }
            ],
            "stateMutability": "view",
            "type": "function"
        },
        {
            "inputs": [
                {
                    "internalType": "address",
                    "name": "newOwner",
                    "type": "address"
                }
            ],
            "name": "transferOwnership",
            "outputs": [],
            "stateMutability": "nonpayable",
            "type": "function"
        },
        {
            "inputs": [
                {
                    "internalType": "uint256",
                    "name": "_amount",
                    "type": "uint256"
                }
            ],
            "name": "unstake",
            "outputs": [],
            "stateMutability": "nonpayable",
            "type": "function"
        },
        {
            "inputs": [
                {
                    "internalType": "uint256",
                    "name": "_amount",
                    "type": "uint256"
                }
            ],
            "name": "withdrawRewardTokens",
            "outputs": [],
            "stateMutability": "nonpayable",
            "type": "function"
        }
    ],
    "bytecode": "608060405234801561000f575f80fd5b50604051611c69380380611c6983398101604081905261002e916101c8565b338061005357604051631e4fbdf760e01b81525f600482015260240160405180910390fd5b61005c8161015e565b5060018055600280546001600160a01b038089166001600160a01b03199283168117909355600380549189169190921617905560058590556006849055600783905560088290556040805163313ce56760e01b8152905163313ce567916004808201926020929091908290030181865afa9250505080156100fa575060408051601f3d908101601f191682019092526100f79181019061021d565b60015b610127576002546001600160a01b03165f908152600c60205260409020805460ff19166012179055610153565b6002546001600160a01b03165f908152600c60205260409020805460ff191660ff929092169190911790555b505050505050610244565b5f80546001600160a01b038381166001600160a01b0319831681178455604051919092169283917f8be0079c531659141344cd1fd0a4f28419497f9722a3daafe3b4186f6b6457e09190a35050565b80516001600160a01b03811681146101c3575f80fd5b919050565b5f805f805f8060c087890312156101dd575f80fd5b6101e6876101ad565b95506101f4602088016101ad565b6040880151606089015160808a015160a0909a0151989b929a5090989097909650945092505050565b5f6020828403121561022d575f80fd5b815160ff8116811461023d575f80fd5b9392505050565b611a18806102515f395ff3fe608060405234801561000f575f80fd5b5060043610610148575f3560e01c8063abb1dc44116100bf578063c8ea4dd611610079578063c8ea4dd6146102fa578063cb43b2dd1461030d578063d7c3820a14610320578063f188768414610333578063f2fde38b1461033c578063f7c618c11461034f575f80fd5b8063abb1dc441461029e578063b0e6bc00146102ba578063b7fcccaa146102c3578063b88a802f146102d6578063c04a2e17146102de578063c55dae63146102e7575f80fd5b8063715018a611610110578063715018a6146101f35780638da5cb5b146101fb5780638ee573ac1461021f57806392d879cf14610253578063a694fc3a14610266578063aa4704f314610279575f80fd5b806316934fc41461014c5780631a9703da1461019f5780632e17de78146101b65780635fec5c64146101cb5780636b731db4146101d4575b5f80fd5b61017d61015a3660046116a9565b600a6020525f908152604090208054600182015460039092015490919060ff1683565b6040805193845260208401929092521515908201526060015b60405180910390f35b6101a860055481565b604051908152602001610196565b6101c96101c43660046116cb565b610362565b005b6101a860075481565b6101a86101e23660046116a9565b600b6020525f908152604090205481565b6101c96106d3565b5f546001600160a01b03165b6040516001600160a01b039091168152602001610196565b61024161022d3660046116a9565b600c6020525f908152604090205460ff1681565b60405160ff9091168152602001610196565b6102076102613660046116cb565b6106e6565b6101c96102743660046116cb565b61070e565b61028c6102873660046116a9565b610aa8565b6040516101969695949392919061171c565b6102a6610c42565b60405161019698979695949392919061175b565b6101a860065481565b6101c96102d1366004611848565b610e69565b6101c96110e0565b6101a860095481565b600254610207906001600160a01b031681565b600454610207906001600160a01b031681565b6101c961031b3660046116cb565b61137e565b6101c961032e3660046118cb565b611512565b6101a860085481565b6101c961034a3660046116a9565b611528565b600354610207906001600160a01b031681565b61036a611562565b335f908152600a60205260409020816103d85760405162461bcd60e51b815260206004820152602560248201527f556e7374616b6520616d6f756e74206d75737420626520677265617465722074604482015264068616e20360dc1b60648201526084015b60405180910390fd5b600280546001600160a01b03165f908152908201602052604090205482111561044f5760405162461bcd60e51b8152602060048201526024808201527f556e7374616b6520616d6f756e742065786365656473207374616b656420616d6044820152631bdd5b9d60e21b60648201526084016103cf565b600754815461045e9190611908565b4210156104a65760405162461bcd60e51b815260206004820152601660248201527514dd185ad948191d5c985d1a5bdb881b9bdd081b595d60521b60448201526064016103cf565b600280546001600160a01b03165f9081529082016020526040812080548492906104d190849061191b565b909155505f90505b600d548110156105e7575f600d82815481106104f7576104f761192e565b5f9182526020808320909101546001600160a01b0316808352600b9091526040822054909250670de0b6b3a7640000906105319087611942565b61053b9190611959565b6001600160a01b0383165f90815260028601602052604081208054929350839290919061056990849061191b565b909155505060405163a9059cbb60e01b8152336004820152602481018290526001600160a01b0383169063a9059cbb906044016020604051808303815f875af11580156105b8573d5f803e3d5ffd5b505050506040513d601f19601f820116820180604052508101906105dc9190611978565b5050506001016104d9565b508160095f8282546105f9919061191b565b909155505060025460405163a9059cbb60e01b8152336004820152602481018490526001600160a01b039091169063a9059cbb906044016020604051808303815f875af115801561064c573d5f803e3d5ffd5b505050506040513d601f19601f820116820180604052508101906106709190611978565b505f61067b8261158c565b60095460408051868152602081019290925260ff8316828201525191925033917f47efae27a70cca1d3ad8e753ab4b48a413e554d244be5c7928fdfee407c37f5d9181900360600190a250506106d060018055565b50565b6106db6115d6565b6106e45f611602565b565b600d81815481106106f5575f80fd5b5f918252602090912001546001600160a01b0316905081565b610716611562565b6008548110156107875760405162461bcd60e51b815260206004820152603660248201527f5374616b6520616d6f756e74206d7573742062652067726561746572207468616044820152751b881b5a5b9a5b5d5b481cdd185ad948185b5bdd5b9d60521b60648201526084016103cf565b335f908152600a60205260408120600d5490919067ffffffffffffffff8111156107b3576107b3611997565b6040519080825280602002602001820160405280156107dc578160200160208202803683370190505b5090505f5b600d548110156108e2575f600d82815481106107ff576107ff61192e565b5f9182526020808320909101546001600160a01b0316808352600b9091526040822054909250670de0b6b3a7640000906108399088611942565b6108439190611959565b9050808484815181106108585761085861192e565b60209081029190910101526040516323b872dd60e01b8152336004820152306024820152604481018290526001600160a01b038316906323b872dd906064016020604051808303815f875af11580156108b3573d5f803e3d5ffd5b505050506040513d601f19601f820116820180604052508101906108d79190611978565b5050506001016107e1565b506002546040516323b872dd60e01b8152336004820152306024820152604481018590526001600160a01b03909116906323b872dd906064016020604051808303815f875af1158015610937573d5f803e3d5ffd5b505050506040513d601f19601f8201168201806040525081019061095b9190611978565b50600280546001600160a01b03165f908152908301602052604081208054859290610987908490611908565b909155505f90505b600d54811015610a0b578181815181106109ab576109ab61192e565b6020026020010151836002015f600d84815481106109cb576109cb61192e565b5f9182526020808320909101546001600160a01b03168352820192909252604001812080549091906109fe908490611908565b909155505060010161098f565b508260095f828254610a1d9190611908565b909155505081545f03610a2e574282555b81600101545f03610a40574260018301555b5f610a4a8361158c565b835460095460408051888152602081019390935282015260ff8216606082015290915033907fe0b36cd6976cb8536f8ece5e0c92aa988fbd17c405a07c84cfef55bad6ded1a19060800160405180910390a25050506106d060018055565b6001600160a01b0381165f908152600a60205260408120600d548291606091839182918291908290610adb906001611908565b90505f8167ffffffffffffffff811115610af757610af7611997565b604051908082528060200260200182016040528015610b20578160200160208202803683370190505b50600280546001600160a01b03165f9081529085016020526040812054825192935091839190610b5257610b5261192e565b6020026020010181815250505f5b600d54811015610bd557836002015f600d8381548110610b8257610b8261192e565b5f9182526020808320909101546001600160a01b0316835282019290925260400190205482610bb2836001611908565b81518110610bc257610bc261192e565b6020908102919091010152600101610b60565b505f836001015442610be7919061191b565b600280546001600160a01b03165f908152908601602052604081205491925090610c119083611651565b90505f610c1d8661158c565b8654600190970154600554979f909e50949c50919a5090985093965090945050505050565b6060805f805f805f805f600d805490506001610c5e9190611908565b90505f8167ffffffffffffffff811115610c7a57610c7a611997565b604051908082528060200260200182016040528015610ca3578160200160208202803683370190505b5090505f8267ffffffffffffffff811115610cc057610cc0611997565b604051908082528060200260200182016040528015610ce9578160200160208202803683370190505b5060025483519192506001600160a01b03169083905f90610d0c57610d0c61192e565b60200260200101906001600160a01b031690816001600160a01b031681525050670de0b6b3a7640000815f81518110610d4757610d4761192e565b6020026020010181815250505f5b600d54811015610e2b57600d8181548110610d7257610d7261192e565b5f918252602090912001546001600160a01b031683610d92836001611908565b81518110610da257610da261192e565b60200260200101906001600160a01b031690816001600160a01b031681525050600b5f600d8381548110610dd857610dd861192e565b5f9182526020808320909101546001600160a01b0316835282019290925260400190205482610e08836001611908565b81518110610e1857610e1861192e565b6020908102919091010152600101610d55565b50600554600654600754600854600354600454969f50949d50929b50909950975095506001600160a01b039081169450169150509091929394959697565b610e716115d6565b838214610ec05760405162461bcd60e51b815260206004820152601f60248201527f546f6b656e20616e6420726174696f206c656e677468206d69736d617463680060448201526064016103cf565b600480546001600160a01b0319166001600160a01b0383161790555f5b848110156110d8575f868683818110610ef857610ef861192e565b9050602002016020810190610f0d91906116a9565b9050600b5f888885818110610f2457610f2461192e565b9050602002016020810190610f3991906116a9565b6001600160a01b03166001600160a01b031681526020019081526020015f20545f03610fba57600d878784818110610f7357610f7361192e565b9050602002016020810190610f8891906116a9565b81546001810183555f928352602090922090910180546001600160a01b0319166001600160a01b039092169190911790555b848483818110610fcc57610fcc61192e565b90506020020135600b5f898986818110610fe857610fe861192e565b9050602002016020810190610ffd91906116a9565b6001600160a01b03166001600160a01b031681526020019081526020015f2081905550806001600160a01b031663313ce5676040518163ffffffff1660e01b8152600401602060405180830381865afa92505050801561107a575060408051601f3d908101601f19168201909252611077918101906119ab565b60015b6110a5576001600160a01b0381165f908152600c60205260409020805460ff191660121790556110cf565b6001600160a01b0382165f908152600c60205260409020805460ff191660ff929092169190911790555b50600101610edd565b505050505050565b6110e8611562565b335f908152600a60209081526040808320600280546001600160a01b031685528101909252909120546111505760405162461bcd60e51b815260206004820152601060248201526f139bc81cdd185ad95908185b5bdd5b9d60821b60448201526064016103cf565b600754815461115f9190611908565b4210156111a75760405162461bcd60e51b815260206004820152601660248201527514dd185ad948191d5c985d1a5bdb881b9bdd081b595d60521b60448201526064016103cf565b5f8160010154426111b8919061191b565b600280546001600160a01b03165f9081529084016020526040812054919250906111e29083611651565b42600185015560035460405163a9059cbb60e01b8152336004820152602481018390529192506001600160a01b03169063a9059cbb906044016020604051808303815f875af1158015611237573d5f803e3d5ffd5b505050506040513d601f19601f8201168201806040525081019061125b9190611978565b506040805182815242602082015233917ff01da32686223933d8a18a391060918c7f11a3648639edd87ae013e2e2731743910160405180910390a2600654600280546001600160a01b03165f9081529085016020526040902054108015906112c85750600383015460ff16155b1561137257600480546040516340d097c360e01b815233928101929092526001600160a01b0316906340d097c3906024015f604051808303815f87803b158015611310575f80fd5b505af1158015611322573d5f803e3d5ffd5b50505060038401805460ff191660011790555060405133907f8c4b0bd0847d940a8f64327b75ae300814f43d12e16f2f0b6da686d784f00beb90611369905f815260200190565b60405180910390a25b5050506106e460018055565b6113866115d6565b5f81116113e45760405162461bcd60e51b815260206004820152602660248201527f576974686472617720616d6f756e74206d75737420626520677265617465722060448201526507468616e20360d41b60648201526084016103cf565b6003546040516370a0823160e01b815230600482015282916001600160a01b0316906370a0823190602401602060405180830381865afa15801561142a573d5f803e3d5ffd5b505050506040513d601f19601f8201168201806040525081019061144e91906119cb565b101561149c5760405162461bcd60e51b815260206004820152601f60248201527f576974686472617720616d6f756e7420657863656564732062616c616e63650060448201526064016103cf565b60035460405163a9059cbb60e01b8152336004820152602481018390526001600160a01b039091169063a9059cbb906044016020604051808303815f875af11580156114ea573d5f803e3d5ffd5b505050506040513d601f19601f8201168201806040525081019061150e9190611978565b5050565b61151a6115d6565b600592909255600855600755565b6115306115d6565b6001600160a01b03811661155957604051631e4fbdf760e01b81525f60048201526024016103cf565b6106d081611602565b60026001540361158557604051633ee5aeb560e01b815260040160405180910390fd5b6002600155565b60038101545f9060ff16156115a357506002919050565b600654600280546001600160a01b03165f9081529084016020526040902054106115cf57506001919050565b505f919050565b5f546001600160a01b031633146106e45760405163118cdaa760e01b81523360048201526024016103cf565b5f80546001600160a01b038381166001600160a01b0319831681178455604051919092169283917f8be0079c531659141344cd1fd0a4f28419497f9722a3daafe3b4186f6b6457e09190a35050565b5f80612710600554856116649190611942565b61166e9190611959565b90505f6301e133806116808584611942565b61168a9190611959565b925050505b92915050565b6001600160a01b03811681146106d0575f80fd5b5f602082840312156116b9575f80fd5b81356116c481611695565b9392505050565b5f602082840312156116db575f80fd5b5035919050565b5f8151808452602084019350602083015f5b828110156117125781518652602095860195909101906001016116f4565b5093949350505050565b86815285602082015260c060408201525f61173a60c08301876116e2565b60608301959095525060ff92909216608083015260a0909101529392505050565b61010080825289519082018190525f9060208b0190610120840190835b8181101561179f5783516001600160a01b0316835260209384019390920191600101611778565b505083810360208501526117b3818c6116e2565b925050508760408301528660608301528560808301528460a08301526117e460c08301856001600160a01b03169052565b6001600160a01b03831660e08301529998505050505050505050565b5f8083601f840112611810575f80fd5b50813567ffffffffffffffff811115611827575f80fd5b6020830191508360208260051b8501011115611841575f80fd5b9250929050565b5f805f805f6060868803121561185c575f80fd5b853567ffffffffffffffff811115611872575f80fd5b61187e88828901611800565b909650945050602086013567ffffffffffffffff81111561189d575f80fd5b6118a988828901611800565b90945092505060408601356118bd81611695565b809150509295509295909350565b5f805f606084860312156118dd575f80fd5b505081359360208301359350604090920135919050565b634e487b7160e01b5f52601160045260245ffd5b8082018082111561168f5761168f6118f4565b8181038181111561168f5761168f6118f4565b634e487b7160e01b5f52603260045260245ffd5b808202811582820484141761168f5761168f6118f4565b5f8261197357634e487b7160e01b5f52601260045260245ffd5b500490565b5f60208284031215611988575f80fd5b815180151581146116c4575f80fd5b634e487b7160e01b5f52604160045260245ffd5b5f602082840312156119bb575f80fd5b815160ff811681146116c4575f80fd5b5f602082840312156119db575f80fd5b505191905056fea2646970667358221220b13ba9d0a39f6fd53f7452c87b590b51f2c544706465b8eee43632ce6379553c64736f6c634300081a0033",
    "sourcePath": "/Users/marco/Dev/Projects/Nodejs/Hardhat_NexGami/contracts/MultiTokenStaking.sol",
    "compiler": {
        "name": "solc",
        "version": "0.8.26+commit.8a97fa7a"
    },
    "functionHashes": {
        "annualInterestRate()": "1a9703da",
        "baseToken()": "c55dae63",
        "claimReward()": "b88a802f",
        "configureStaking(address[],uint256[],address)": "b7fcccaa",
        "configureStakingParameters(uint256,uint256,uint256)": "d7c3820a",
        "getStakingInfo(address)": "aa4704f3",
        "getTokenInfo()": "abb1dc44",
        "minStakeAmount()": "f1887684",
        "minStakeDuration()": "5fec5c64",
        "nftThreshold()": "b0e6bc00",
        "otherTokenRatios(address)": "6b731db4",
        "otherTokens(uint256)": "92d879cf",
        "owner()": "8da5cb5b",
        "renounceOwnership()": "715018a6",
        "rewardNFT()": "c8ea4dd6",
        "rewardToken()": "f7c618c1",
        "stake(uint256)": "a694fc3a",
        "stakes(address)": "16934fc4",
        "tokenDecimals(address)": "8ee573ac",
        "totalBaseStaked()": "c04a2e17",
        "transferOwnership(address)": "f2fde38b",
        "unstake(uint256)": "2e17de78",
        "withdrawRewardTokens(uint256)": "cb43b2dd"
    },
    "gasEstimates": {
        "creation": {
            "codeDepositCost": "1336000",
            "executionCost": "infinite",
            "totalCost": "infinite"
        },
        "external": {
            "annualInterestRate()": "2340",
            "baseToken()": "2469",
            "claimReward()": "infinite",
            "configureStaking(address[],uint256[],address)": "infinite",
            "configureStakingParameters(uint256,uint256,uint256)": "68811",
            "getStakingInfo(address)": "infinite",
            "getTokenInfo()": "infinite",
            "minStakeAmount()": "2382",
            "minStakeDuration()": "2384",
            "nftThreshold()": "2339",
            "otherTokenRatios(address)": "2622",
            "otherTokens(uint256)": "4700",
            "owner()": "2363",
            "renounceOwnership()": "infinite",
            "rewardNFT()": "2358",
            "rewardToken()": "2468",
            "stake(uint256)": "infinite",
            "stakes(address)": "6810",
            "tokenDecimals(address)": "2592",
            "totalBaseStaked()": "2405",
            "transferOwnership(address)": "infinite",
            "unstake(uint256)": "infinite",
            "withdrawRewardTokens(uint256)": "infinite"
        },
        "internal": {
            "_calculateReward(uint256,uint256)": "infinite",
            "_determineNftStatus(struct MultiTokenStaking.StakeInfo storage pointer)": "8582"
        }
    }
}