{
    "contractName": "TokenVesting",
    "abi": [
        {
            "inputs": [
                {
                    "internalType": "contract IERC20",
                    "name": "token_",
                    "type": "address"
                },
                {
                    "internalType": "address",
                    "name": "beneficiary_",
                    "type": "address"
                },
                {
                    "internalType": "uint256",
                    "name": "start_",
                    "type": "uint256"
                },
                {
                    "internalType": "uint256",
                    "name": "cliffDuration_",
                    "type": "uint256"
                },
                {
                    "internalType": "uint256",
                    "name": "duration_",
                    "type": "uint256"
                }
            ],
            "stateMutability": "nonpayable",
            "type": "constructor"
        },
        {
            "inputs": [
                {
                    "internalType": "address",
                    "name": "owner",
                    "type": "address"
                }
            ],
            "name": "OwnableInvalidOwner",
            "type": "error"
        },
        {
            "inputs": [
                {
                    "internalType": "address",
                    "name": "account",
                    "type": "address"
                }
            ],
            "name": "OwnableUnauthorizedAccount",
            "type": "error"
        },
        {
            "inputs": [],
            "name": "ReentrancyGuardReentrantCall",
            "type": "error"
        },
        {
            "anonymous": false,
            "inputs": [
                {
                    "indexed": true,
                    "internalType": "address",
                    "name": "previousOwner",
                    "type": "address"
                },
                {
                    "indexed": true,
                    "internalType": "address",
                    "name": "newOwner",
                    "type": "address"
                }
            ],
            "name": "OwnershipTransferred",
            "type": "event"
        },
        {
            "anonymous": false,
            "inputs": [
                {
                    "indexed": false,
                    "internalType": "address",
                    "name": "token",
                    "type": "address"
                }
            ],
            "name": "TokenVestingRevoked",
            "type": "event"
        },
        {
            "anonymous": false,
            "inputs": [
                {
                    "indexed": false,
                    "internalType": "address",
                    "name": "token",
                    "type": "address"
                },
                {
                    "indexed": false,
                    "internalType": "uint256",
                    "name": "amount",
                    "type": "uint256"
                }
            ],
            "name": "TokensReleased",
            "type": "event"
        },
        {
            "inputs": [],
            "name": "owner",
            "outputs": [
                {
                    "internalType": "address",
                    "name": "",
                    "type": "address"
                }
            ],
            "stateMutability": "view",
            "type": "function"
        },
        {
            "inputs": [],
            "name": "releasableAmount",
            "outputs": [
                {
                    "internalType": "uint256",
                    "name": "",
                    "type": "uint256"
                }
            ],
            "stateMutability": "view",
            "type": "function"
        },
        {
            "inputs": [],
            "name": "release",
            "outputs": [],
            "stateMutability": "nonpayable",
            "type": "function"
        },
        {
            "inputs": [],
            "name": "renounceOwnership",
            "outputs": [],
            "stateMutability": "nonpayable",
            "type": "function"
        },
        {
            "inputs": [],
            "name": "revoke",
            "outputs": [],
            "stateMutability": "nonpayable",
            "type": "function"
        },
        {
            "inputs": [
                {
                    "internalType": "address",
                    "name": "newOwner",
                    "type": "address"
                }
            ],
            "name": "transferOwnership",
            "outputs": [],
            "stateMutability": "nonpayable",
            "type": "function"
        }
    ],
    "bytecode": "608060405234801561000f575f80fd5b50604051610aba380380610aba83398101604081905261002e916102a9565b338061005457604051631e4fbdf760e01b81525f60048201526024015b60405180910390fd5b61005d81610243565b50600180556001600160a01b0385166100c85760405162461bcd60e51b815260206004820152602760248201527f546f6b656e56657374696e673a20746f6b656e20697320746865207a65726f206044820152666164647265737360c81b606482015260840161004b565b6001600160a01b0384166101345760405162461bcd60e51b815260206004820152602d60248201527f546f6b656e56657374696e673a2062656e65666963696172792069732074686560448201526c207a65726f206164647265737360981b606482015260840161004b565b5f81116101835760405162461bcd60e51b815260206004820152601b60248201527f546f6b656e56657374696e673a206475726174696f6e20697320300000000000604482015260640161004b565b808211156101e75760405162461bcd60e51b815260206004820152602b60248201527f546f6b656e56657374696e673a20636c696666206973206c6f6e67657220746860448201526a30b710323ab930ba34b7b760a91b606482015260840161004b565b600280546001600160a01b038088166001600160a01b0319928316179092556003805492871692909116919091179055600483905561022682846102f8565b60055560065550505f60075550506008805460ff1916905561031d565b5f80546001600160a01b038381166001600160a01b0319831681178455604051919092169283917f8be0079c531659141344cd1fd0a4f28419497f9722a3daafe3b4186f6b6457e09190a35050565b6001600160a01b03811681146102a6575f80fd5b50565b5f805f805f60a086880312156102bd575f80fd5b85516102c881610292565b60208701519095506102d981610292565b6040870151606088015160809098015196999198509695945092505050565b8082018082111561031757634e487b7160e01b5f52601160045260245ffd5b92915050565b6107908061032a5f395ff3fe608060405234801561000f575f80fd5b5060043610610060575f3560e01c80635b94008114610064578063715018a61461007f57806386d1a69f146100895780638da5cb5b14610091578063b6549f75146100ab578063f2fde38b146100b3575b5f80fd5b61006c6100c6565b6040519081526020015b60405180910390f35b6100876100d4565b005b6100876100e7565b5f546040516001600160a01b039091168152602001610076565b610087610288565b6100876100c1366004610681565b61045a565b5f6100cf610497565b905090565b6100dc6104be565b6100e55f6104ea565b565b6100ef610539565b60085460ff16156101515760405162461bcd60e51b815260206004820152602160248201527f546f6b656e56657374696e673a20636f6e7472616374206973207265766f6b656044820152601960fa1b60648201526084015b60405180910390fd5b5f61015a610497565b90505f81116101ab5760405162461bcd60e51b815260206004820152601f60248201527f546f6b656e56657374696e673a206e6f20746f6b656e732061726520647565006044820152606401610148565b8060075f8282546101bc91906106c2565b909155505060025460035460405163a9059cbb60e01b81526001600160a01b0391821660048201526024810184905291169063a9059cbb906044016020604051808303815f875af1158015610213573d5f803e3d5ffd5b505050506040513d601f19601f8201168201806040525081019061023791906106db565b50600254604080516001600160a01b039092168252602082018390527fc7798891864187665ac6dd119286e44ec13f014527aeeb2b8eb3fd413df93179910160405180910390a1506100e560018055565b6102906104be565b60085460ff16156102f25760405162461bcd60e51b815260206004820152602660248201527f546f6b656e56657374696e673a20636f6e747261637420616c72656164792072604482015265195d9bdad95960d21b6064820152608401610148565b6002546040516370a0823160e01b81523060048201525f916001600160a01b0316906370a0823190602401602060405180830381865afa158015610338573d5f803e3d5ffd5b505050506040513d601f19601f8201168201806040525081019061035c91906106fa565b90505f610367610497565b90505f6103748284610711565b6008805460ff191660011790556002549091506001600160a01b031663a9059cbb6103a65f546001600160a01b031690565b6040516001600160e01b031960e084901b1681526001600160a01b039091166004820152602481018490526044016020604051808303815f875af11580156103f0573d5f803e3d5ffd5b505050506040513d601f19601f8201168201806040525081019061041491906106db565b506002546040516001600160a01b0390911681527f39983c6d4d174a7aee564f449d4a5c3c7ac9649d72b7793c56901183996f8af69060200160405180910390a1505050565b6104626104be565b6001600160a01b03811661048b57604051631e4fbdf760e01b81525f6004820152602401610148565b610494816104ea565b50565b6008545f9060ff16156104a957505f90565b6007546104b4610563565b6100cf9190610711565b5f546001600160a01b031633146100e55760405163118cdaa760e01b8152336004820152602401610148565b5f80546001600160a01b038381166001600160a01b0319831681178455604051919092169283917f8be0079c531659141344cd1fd0a4f28419497f9722a3daafe3b4186f6b6457e09190a35050565b60026001540361055c57604051633ee5aeb560e01b815260040160405180910390fd5b6002600155565b5f60055442101561057357505f90565b60065460045461058391906106c2565b42106105f3576002546040516370a0823160e01b81523060048201526001600160a01b03909116906370a0823190602401602060405180830381865afa1580156105cf573d5f803e3d5ffd5b505050506040513d601f19601f820116820180604052508101906100cf91906106fa565b6006546004546106039042610711565b6002546040516370a0823160e01b81523060048201526001600160a01b03909116906370a0823190602401602060405180830381865afa158015610649573d5f803e3d5ffd5b505050506040513d601f19601f8201168201806040525081019061066d91906106fa565b6106779190610724565b6100cf919061073b565b5f60208284031215610691575f80fd5b81356001600160a01b03811681146106a7575f80fd5b9392505050565b634e487b7160e01b5f52601160045260245ffd5b808201808211156106d5576106d56106ae565b92915050565b5f602082840312156106eb575f80fd5b815180151581146106a7575f80fd5b5f6020828403121561070a575f80fd5b5051919050565b818103818111156106d5576106d56106ae565b80820281158282048414176106d5576106d56106ae565b5f8261075557634e487b7160e01b5f52601260045260245ffd5b50049056fea2646970667358221220e7ef622ee46f7f1c609e42df10914f57c9ff88f683cd3d301bf2c166e87fd7ed64736f6c63430008140033",
    "sourcePath": "/Users/marco/Dev/Projects/Nodejs/Hardhat_NexGami/contracts/TokenVesting.sol",
    "compiler": {
        "name": "solc",
        "version": "0.8.20+commit.a1b79de6"
    },
    "functionHashes": {
        "owner()": "8da5cb5b",
        "releasableAmount()": "5b940081",
        "release()": "86d1a69f",
        "renounceOwnership()": "715018a6",
        "revoke()": "b6549f75",
        "transferOwnership(address)": "f2fde38b"
    },
    "gasEstimates": {
        "creation": {
            "codeDepositCost": "387200",
            "executionCost": "infinite",
            "totalCost": "infinite"
        },
        "external": {
            "owner()": "2343",
            "releasableAmount()": "infinite",
            "release()": "infinite",
            "renounceOwnership()": "infinite",
            "revoke()": "infinite",
            "transferOwnership(address)": "28382"
        },
        "internal": {
            "_releasableAmount()": "infinite",
            "_vestedAmount()": "infinite"
        }
    }
}