{
    "contractName": "TokenVesting",
    "abi": [
        {
            "inputs": [
                {
                    "internalType": "address",
                    "name": "token_",
                    "type": "address"
                }
            ],
            "stateMutability": "nonpayable",
            "type": "constructor"
        },
        {
            "inputs": [
                {
                    "internalType": "address",
                    "name": "owner",
                    "type": "address"
                }
            ],
            "name": "OwnableInvalidOwner",
            "type": "error"
        },
        {
            "inputs": [
                {
                    "internalType": "address",
                    "name": "account",
                    "type": "address"
                }
            ],
            "name": "OwnableUnauthorizedAccount",
            "type": "error"
        },
        {
            "anonymous": false,
            "inputs": [
                {
                    "indexed": true,
                    "internalType": "address",
                    "name": "previousOwner",
                    "type": "address"
                },
                {
                    "indexed": true,
                    "internalType": "address",
                    "name": "newOwner",
                    "type": "address"
                }
            ],
            "name": "OwnershipTransferred",
            "type": "event"
        },
        {
            "anonymous": false,
            "inputs": [
                {
                    "indexed": true,
                    "internalType": "address",
                    "name": "beneficiary",
                    "type": "address"
                },
                {
                    "indexed": false,
                    "internalType": "uint256",
                    "name": "amount",
                    "type": "uint256"
                }
            ],
            "name": "Released",
            "type": "event"
        },
        {
            "anonymous": false,
            "inputs": [
                {
                    "indexed": true,
                    "internalType": "address",
                    "name": "beneficiary",
                    "type": "address"
                },
                {
                    "indexed": false,
                    "internalType": "uint256",
                    "name": "amount",
                    "type": "uint256"
                }
            ],
            "name": "Revoked",
            "type": "event"
        },
        {
            "anonymous": false,
            "inputs": [
                {
                    "indexed": true,
                    "internalType": "address",
                    "name": "beneficiary",
                    "type": "address"
                },
                {
                    "indexed": false,
                    "internalType": "uint256",
                    "name": "totalAmount",
                    "type": "uint256"
                },
                {
                    "indexed": false,
                    "internalType": "enum TokenVesting.Role",
                    "name": "role",
                    "type": "uint8"
                },
                {
                    "indexed": false,
                    "internalType": "uint256",
                    "name": "start",
                    "type": "uint256"
                },
                {
                    "indexed": false,
                    "internalType": "uint256",
                    "name": "duration",
                    "type": "uint256"
                },
                {
                    "indexed": false,
                    "internalType": "uint256",
                    "name": "cliff",
                    "type": "uint256"
                },
                {
                    "indexed": false,
                    "internalType": "uint256",
                    "name": "slicePeriodSeconds",
                    "type": "uint256"
                },
                {
                    "indexed": false,
                    "internalType": "uint256",
                    "name": "cliffReleasePercentage",
                    "type": "uint256"
                }
            ],
            "name": "VestingScheduleCreated",
            "type": "event"
        },
        {
            "inputs": [
                {
                    "internalType": "address",
                    "name": "_beneficiary",
                    "type": "address"
                },
                {
                    "internalType": "uint256",
                    "name": "_start",
                    "type": "uint256"
                },
                {
                    "internalType": "uint256",
                    "name": "_cliff",
                    "type": "uint256"
                },
                {
                    "internalType": "uint256",
                    "name": "_duration",
                    "type": "uint256"
                },
                {
                    "internalType": "uint256",
                    "name": "_totalAmount",
                    "type": "uint256"
                },
                {
                    "internalType": "bool",
                    "name": "_revocable",
                    "type": "bool"
                },
                {
                    "internalType": "enum TokenVesting.Role",
                    "name": "_role",
                    "type": "uint8"
                },
                {
                    "internalType": "enum TokenVesting.ReleaseInterval",
                    "name": "_releaseInterval",
                    "type": "uint8"
                },
                {
                    "internalType": "uint256",
                    "name": "_cliffReleasePercentage",
                    "type": "uint256"
                }
            ],
            "name": "createVestingSchedule",
            "outputs": [],
            "stateMutability": "nonpayable",
            "type": "function"
        },
        {
            "inputs": [],
            "name": "getTokenAddress",
            "outputs": [
                {
                    "internalType": "address",
                    "name": "",
                    "type": "address"
                }
            ],
            "stateMutability": "view",
            "type": "function"
        },
        {
            "inputs": [
                {
                    "internalType": "address",
                    "name": "_beneficiary",
                    "type": "address"
                }
            ],
            "name": "getVestingSchedule",
            "outputs": [
                {
                    "internalType": "uint256",
                    "name": "cliff",
                    "type": "uint256"
                },
                {
                    "internalType": "uint256",
                    "name": "start",
                    "type": "uint256"
                },
                {
                    "internalType": "uint256",
                    "name": "duration",
                    "type": "uint256"
                },
                {
                    "internalType": "uint256",
                    "name": "slicePeriodSeconds",
                    "type": "uint256"
                },
                {
                    "internalType": "uint256",
                    "name": "totalAmount",
                    "type": "uint256"
                },
                {
                    "internalType": "uint256",
                    "name": "released",
                    "type": "uint256"
                },
                {
                    "internalType": "bool",
                    "name": "revocable",
                    "type": "bool"
                },
                {
                    "internalType": "bool",
                    "name": "revoked",
                    "type": "bool"
                },
                {
                    "internalType": "enum TokenVesting.Role",
                    "name": "role",
                    "type": "uint8"
                },
                {
                    "internalType": "uint256",
                    "name": "cliffReleasePercentage",
                    "type": "uint256"
                },
                {
                    "internalType": "uint256",
                    "name": "releasableAmount",
                    "type": "uint256"
                }
            ],
            "stateMutability": "view",
            "type": "function"
        },
        {
            "inputs": [],
            "name": "getVestingSchedulesTotalAmount",
            "outputs": [
                {
                    "internalType": "uint256",
                    "name": "",
                    "type": "uint256"
                }
            ],
            "stateMutability": "view",
            "type": "function"
        },
        {
            "inputs": [],
            "name": "owner",
            "outputs": [
                {
                    "internalType": "address",
                    "name": "",
                    "type": "address"
                }
            ],
            "stateMutability": "view",
            "type": "function"
        },
        {
            "inputs": [
                {
                    "internalType": "address",
                    "name": "_beneficiary",
                    "type": "address"
                }
            ],
            "name": "release",
            "outputs": [],
            "stateMutability": "nonpayable",
            "type": "function"
        },
        {
            "inputs": [],
            "name": "renounceOwnership",
            "outputs": [],
            "stateMutability": "nonpayable",
            "type": "function"
        },
        {
            "inputs": [
                {
                    "internalType": "address",
                    "name": "_beneficiary",
                    "type": "address"
                }
            ],
            "name": "revoke",
            "outputs": [],
            "stateMutability": "nonpayable",
            "type": "function"
        },
        {
            "inputs": [],
            "name": "token",
            "outputs": [
                {
                    "internalType": "contract IERC20",
                    "name": "",
                    "type": "address"
                }
            ],
            "stateMutability": "view",
            "type": "function"
        },
        {
            "inputs": [
                {
                    "internalType": "address",
                    "name": "newOwner",
                    "type": "address"
                }
            ],
            "name": "transferOwnership",
            "outputs": [],
            "stateMutability": "nonpayable",
            "type": "function"
        },
        {
            "inputs": [],
            "name": "withdraw",
            "outputs": [],
            "stateMutability": "nonpayable",
            "type": "function"
        }
    ],
    "bytecode": "608060405234801561000f575f80fd5b5060405161163538038061163583398101604081905261002e91610128565b338061005457604051631e4fbdf760e01b81525f60048201526024015b60405180910390fd5b61005d816100d9565b506001600160a01b0381166100b45760405162461bcd60e51b815260206004820152601c60248201527f546f6b656e20616464726573732063616e6e6f74206265207a65726f00000000604482015260640161004b565b600180546001600160a01b0319166001600160a01b0392909216919091179055610155565b5f80546001600160a01b038381166001600160a01b0319831681178455604051919092169283917f8be0079c531659141344cd1fd0a4f28419497f9722a3daafe3b4186f6b6457e09190a35050565b5f60208284031215610138575f80fd5b81516001600160a01b038116811461014e575f80fd5b9392505050565b6114d3806101625f395ff3fe608060405234801561000f575f80fd5b50600436106100a6575f3560e01c806374a8f1031161006e57806374a8f1031461010a5780638da5cb5b1461011d5780639f8290631461012d578063a3da18de14610157578063f2fde38b1461016a578063fc0c546a1461017d575f80fd5b806310fe9ae8146100aa57806319165587146100d45780633ccfd60b146100e957806348deb471146100f1578063715018a614610102575b5f80fd5b6001546001600160a01b03165b6040516001600160a01b0390911681526020015b60405180910390f35b6100e76100e2366004611216565b610190565b005b6100e7610424565b6003546040519081526020016100cb565b6100e7610676565b6100e7610118366004611216565b610689565b5f546001600160a01b03166100b7565b61014061013b366004611216565b610886565b6040516100cb9b9a9998979695949392919061126a565b6100e76101653660046112d9565b610a1a565b6100e7610178366004611216565b610e48565b6001546100b7906001600160a01b031681565b6001600160a01b0381165f90815260026020526040902054819060ff166101d25760405162461bcd60e51b81526004016101c990611367565b60405180910390fd5b6001600160a01b0382165f908152600260205260409020600701548290610100900460ff16156102145760405162461bcd60e51b81526004016101c99061139e565b6001600160a01b038084165f908152600260208181526040808420815161018081018352815460ff8082161515835261010091829004909816948201949094526001808301549382019390935293810154606085015260038101546080850152600481015460a0850152600581015460c0850152600681015460e0850152600781015480871615158486015292830486161515610120850152946102f99392869261014085019262010000909204909116908111156102d5576102d5611236565b60018111156102e6576102e6611236565b8152602001600882015481525050610e85565b90505f811161034a5760405162461bcd60e51b815260206004820152601e60248201527f4e6f2072656c65617361626c6520616d6f756e7420617661696c61626c65000060448201526064016101c9565b80826006015461035a91906113e9565b6006830155600154825460405163a9059cbb60e01b81526001600160a01b03610100909204821660048201526024810184905291169063a9059cbb906044016020604051808303815f875af11580156103b5573d5f803e3d5ffd5b505050506040513d601f19601f820116820180604052508101906103d991906113fc565b50846001600160a01b03167fb21fb52d5749b80f3182f8c6992236b5e5576681880914484d7f4c9b062e619e8260405161041591815260200190565b60405180910390a25050505050565b335f8181526002602052604090205460ff166104525760405162461bcd60e51b81526004016101c990611367565b6001600160a01b0381165f90815260026020526040902060070154610100900460ff16156104925760405162461bcd60e51b81526004016101c99061139e565b6001600160a01b038082165f908152600260208181526040808420815161018081018352815460ff8082161515835261010091829004909816948201949094526001808301549382019390935293810154606085015260038101546080850152600481015460a0850152600581015460c0850152600681015460e0850152600781015480871615158486015292830486161515610120850152946105539392869261014085019262010000909204909116908111156102d5576102d5611236565b90505f81116105a45760405162461bcd60e51b815260206004820152601e60248201527f4e6f2072656c65617361626c6520616d6f756e7420617661696c61626c65000060448201526064016101c9565b8082600601546105b491906113e9565b600683015560015460405163a9059cbb60e01b81526001600160a01b038581166004830152602482018490529091169063a9059cbb906044016020604051808303815f875af1158015610609573d5f803e3d5ffd5b505050506040513d601f19601f8201168201806040525081019061062d91906113fc565b50826001600160a01b03167fb21fb52d5749b80f3182f8c6992236b5e5576681880914484d7f4c9b062e619e8260405161066991815260200190565b60405180910390a2505050565b61067e610fb2565b6106875f610fde565b565b610691610fb2565b6001600160a01b0381165f90815260026020526040902054819060ff166106ca5760405162461bcd60e51b81526004016101c990611367565b6001600160a01b0382165f908152600260205260409020600701548290610100900460ff161561070c5760405162461bcd60e51b81526004016101c99061139e565b6001600160a01b0383165f908152600260205260409020600781015460ff166107815760405162461bcd60e51b815260206004820152602160248201527f56657374696e67207363686564756c65206973206e6f74207265766f6361626c6044820152606560f81b60648201526084016101c9565b60078101805461ff001916610100179055600681015460058201545f916107a791611417565b9050806003546107b79190611417565b6003556001546001600160a01b031663a9059cbb6107dc5f546001600160a01b031690565b6040516001600160e01b031960e084901b1681526001600160a01b039091166004820152602481018490526044016020604051808303815f875af1158015610826573d5f803e3d5ffd5b505050506040513d601f19601f8201168201806040525081019061084a91906113fc565b50846001600160a01b03167f713b90881ad62c4fa8ab6bd9197fa86481fc0c11b2edba60026514281b2dbac48260405161041591815260200190565b6001600160a01b0381165f9081526002602052604081205481908190819081908190819081908190819081908c9060ff166108d35760405162461bcd60e51b81526004016101c990611367565b6001600160a01b03808e165f908152600260208181526040808420815161018081018352815460ff8082161515835261010091829004909816948201949094526001808301549382019390935293810154606085015260038101546080850152600481015460a0850152600581015460c0850152600681015460e08501526007810154808716151584860152928304861615156101208501529394929392610140850192620100009004169081111561098e5761098e611236565b600181111561099f5761099f611236565b815260200160088201548152505090505f6109b982610e85565b90508160400151826060015183608001518460a001518560c001518660e001518761010001518861012001518961014001518a61016001518a9d509d509d509d509d509d509d509d509d509d509d5050505091939597999b90929496989a50565b610a22610fb2565b6001600160a01b038916610a835760405162461bcd60e51b815260206004820152602260248201527f42656e65666963696172792063616e6e6f74206265207a65726f206164647265604482015261737360f01b60648201526084016101c9565b5f8611610ac95760405162461bcd60e51b815260206004820152601460248201527304475726174696f6e206d757374206265203e20360641b60448201526064016101c9565b5f8511610b185760405162461bcd60e51b815260206004820152601860248201527f546f74616c20616d6f756e74206d757374206265203e2030000000000000000060448201526064016101c9565b86861015610b685760405162461bcd60e51b815260206004820152601960248201527f4475726174696f6e206d757374206265203e3d20636c6966660000000000000060448201526064016101c9565b612710811115610bcc5760405162461bcd60e51b815260206004820152602960248201527f436c6966662072656c656173652070657263656e74616765206d7573742062656044820152680203c3d2031303030360bc1b60648201526084016101c9565b6001600160a01b0389165f9081526002602052604090205460ff1615610c515760405162461bcd60e51b815260206004820152603460248201527f56657374696e67207363686564756c6520616c72656164792065786973747320604482015273666f7220746869732062656e656669636961727960601b60648201526084016101c9565b5f610c5b8361102d565b9050610c6561118b565b600181526001600160a01b038b166020820152610c82898b6113e9565b6040820152606081018a90526080810188905260a0810182905260c081018790528515156101008201526101408101856001811115610cc357610cc3611236565b90816001811115610cd657610cd6611236565b90525061016081018390526001600160a01b038b81165f9081526002602081815260409283902085518154928701516001600160a81b0319909316901515610100600160a81b03191617610100929095168202949094178455918401516001808501919091556060850151918401919091556080840151600384015560a0840151600484015560c0840151600584015560e084015160068401558184015160078401805461012087015161ffff1990911692151561ff00191692909217911515909302178083556101408501518594939092909162ff000019169062010000908490811115610dc757610dc7611236565b0217905550610160820151816008015590505086600354610de891906113e9565b6003819055508a6001600160a01b03167f29ca30d777f36911071b2845a40b3ee4210cfc2a3d4fee67c8789b688f5401fa88878d8c8e888a604051610e33979695949392919061142a565b60405180910390a25050505050505050505050565b610e50610fb2565b6001600160a01b038116610e7957604051631e4fbdf760e01b81525f60048201526024016101c9565b610e8281610fde565b50565b5f8160400151421015610e9957505f919050565b81610120015115610eab57505f919050565b81608001518260600151610ebf91906113e9565b4210610edf578160e001518260c00151610ed99190611417565b92915050565b5f6127108361016001518460c00151610ef89190611467565b610f02919061147e565b90505f836040015142610f159190611417565b90505f8460a0015182610f28919061147e565b90505f8560a0015182610f3b9190611467565b90505f86606001518760400151610f529190611417565b8760800151610f619190611417565b82868960c00151610f729190611417565b610f7c9190611467565b610f86919061147e565b60e0880151909150610f9882876113e9565b610fa29190611417565b979650505050505050565b919050565b5f546001600160a01b031633146106875760405163118cdaa760e01b81523360048201526024016101c9565b5f80546001600160a01b038381166001600160a01b0319831681178455604051919092169283917f8be0079c531659141344cd1fd0a4f28419497f9722a3daafe3b4186f6b6457e09190a35050565b5f8082600781111561104157611041611236565b0361104e5750603c919050565b600182600781111561106257611062611236565b036110705750610e10919050565b600282600781111561108457611084611236565b03611093575062015180919050565b60038260078111156110a7576110a7611236565b036110b6575062093a80919050565b60048260078111156110ca576110ca611236565b036110d9575062278d00919050565b60058260078111156110ed576110ed611236565b036110fc57506276a700919050565b600682600781111561111057611110611236565b0361111f575062ed4e00919050565b600782600781111561113357611133611236565b0361114357506301e13380919050565b60405162461bcd60e51b815260206004820152601860248201527f496e76616c69642072656c6561736520696e74657276616c000000000000000060448201526064016101c9565b6040518061018001604052805f151581526020015f6001600160a01b031681526020015f81526020015f81526020015f81526020015f81526020015f81526020015f81526020015f151581526020015f151581526020015f60018111156111f4576111f4611236565b81526020015f81525090565b80356001600160a01b0381168114610fad575f80fd5b5f60208284031215611226575f80fd5b61122f82611200565b9392505050565b634e487b7160e01b5f52602160045260245ffd5b6002811061126657634e487b7160e01b5f52602160045260245ffd5b9052565b5f610160820190508c82528b60208301528a60408301528960608301528860808301528760a083015286151560c083015285151560e08301526112b161010083018661124a565b61012082019390935261014001529998505050505050505050565b8015158114610e82575f80fd5b5f805f805f805f805f6101208a8c0312156112f2575f80fd5b6112fb8a611200565b985060208a0135975060408a0135965060608a0135955060808a0135945060a08a0135611327816112cc565b935060c08a01356002811061133a575f80fd5b925060e08a01356008811061134d575f80fd5b989b979a5095989497939692955090936101000135919050565b6020808252601f908201527f56657374696e67207363686564756c6520646f6573206e6f7420657869737400604082015260600190565b6020808252601b908201527f56657374696e67207363686564756c65206973207265766f6b65640000000000604082015260600190565b634e487b7160e01b5f52601160045260245ffd5b80820180821115610ed957610ed96113d5565b5f6020828403121561140c575f80fd5b815161122f816112cc565b81810381811115610ed957610ed96113d5565b87815260e0810161143e602083018961124a565b60408201969096526060810194909452608084019290925260a083015260c09091015292915050565b8082028115828204841417610ed957610ed96113d5565b5f8261149857634e487b7160e01b5f52601260045260245ffd5b50049056fea264697066735822122019587d7fdde510952b558115b7f60079807de5ab79ac1cbb53b1b6113e53557964736f6c634300081a0033",
    "sourcePath": "/Users/marco/Dev/Projects/Nodejs/Hardhat_NexGami/contracts/TokenVesting.sol",
    "compiler": {
        "name": "solc",
        "version": "0.8.26+commit.8a97fa7a"
    },
    "functionHashes": {
        "createVestingSchedule(address,uint256,uint256,uint256,uint256,bool,uint8,uint8,uint256)": "a3da18de",
        "getTokenAddress()": "10fe9ae8",
        "getVestingSchedule(address)": "9f829063",
        "getVestingSchedulesTotalAmount()": "48deb471",
        "owner()": "8da5cb5b",
        "release(address)": "19165587",
        "renounceOwnership()": "715018a6",
        "revoke(address)": "74a8f103",
        "token()": "fc0c546a",
        "transferOwnership(address)": "f2fde38b",
        "withdraw()": "3ccfd60b"
    },
    "gasEstimates": {
        "creation": {
            "codeDepositCost": "1066200",
            "executionCost": "infinite",
            "totalCost": "infinite"
        },
        "external": {
            "createVestingSchedule(address,uint256,uint256,uint256,uint256,bool,uint8,uint8,uint256)": "infinite",
            "getTokenAddress()": "2309",
            "getVestingSchedule(address)": "infinite",
            "getVestingSchedulesTotalAmount()": "2346",
            "owner()": "2340",
            "release(address)": "infinite",
            "renounceOwnership()": "infinite",
            "revoke(address)": "infinite",
            "token()": "2435",
            "transferOwnership(address)": "28417",
            "withdraw()": "infinite"
        },
        "internal": {
            "_computeReleasableAmount(struct TokenVesting.VestingSchedule memory)": "infinite",
            "_getSlicePeriodSeconds(enum TokenVesting.ReleaseInterval)": "infinite"
        }
    }
}