{
    "contractName": "StakeRewardTest",
    "abi": [
        {
            "inputs": [
                {
                    "internalType": "address",
                    "name": "defaultAdmin",
                    "type": "address"
                },
                {
                    "internalType": "address",
                    "name": "minter",
                    "type": "address"
                }
            ],
            "stateMutability": "nonpayable",
            "type": "constructor"
        },
        {
            "inputs": [],
            "name": "AccessControlBadConfirmation",
            "type": "error"
        },
        {
            "inputs": [
                {
                    "internalType": "address",
                    "name": "account",
                    "type": "address"
                },
                {
                    "internalType": "bytes32",
                    "name": "neededRole",
                    "type": "bytes32"
                }
            ],
            "name": "AccessControlUnauthorizedAccount",
            "type": "error"
        },
        {
            "inputs": [
                {
                    "internalType": "address",
                    "name": "sender",
                    "type": "address"
                },
                {
                    "internalType": "uint256",
                    "name": "tokenId",
                    "type": "uint256"
                },
                {
                    "internalType": "address",
                    "name": "owner",
                    "type": "address"
                }
            ],
            "name": "ERC721IncorrectOwner",
            "type": "error"
        },
        {
            "inputs": [
                {
                    "internalType": "address",
                    "name": "operator",
                    "type": "address"
                },
                {
                    "internalType": "uint256",
                    "name": "tokenId",
                    "type": "uint256"
                }
            ],
            "name": "ERC721InsufficientApproval",
            "type": "error"
        },
        {
            "inputs": [
                {
                    "internalType": "address",
                    "name": "approver",
                    "type": "address"
                }
            ],
            "name": "ERC721InvalidApprover",
            "type": "error"
        },
        {
            "inputs": [
                {
                    "internalType": "address",
                    "name": "operator",
                    "type": "address"
                }
            ],
            "name": "ERC721InvalidOperator",
            "type": "error"
        },
        {
            "inputs": [
                {
                    "internalType": "address",
                    "name": "owner",
                    "type": "address"
                }
            ],
            "name": "ERC721InvalidOwner",
            "type": "error"
        },
        {
            "inputs": [
                {
                    "internalType": "address",
                    "name": "receiver",
                    "type": "address"
                }
            ],
            "name": "ERC721InvalidReceiver",
            "type": "error"
        },
        {
            "inputs": [
                {
                    "internalType": "address",
                    "name": "sender",
                    "type": "address"
                }
            ],
            "name": "ERC721InvalidSender",
            "type": "error"
        },
        {
            "inputs": [
                {
                    "internalType": "uint256",
                    "name": "tokenId",
                    "type": "uint256"
                }
            ],
            "name": "ERC721NonexistentToken",
            "type": "error"
        },
        {
            "anonymous": false,
            "inputs": [
                {
                    "indexed": true,
                    "internalType": "address",
                    "name": "owner",
                    "type": "address"
                },
                {
                    "indexed": true,
                    "internalType": "address",
                    "name": "approved",
                    "type": "address"
                },
                {
                    "indexed": true,
                    "internalType": "uint256",
                    "name": "tokenId",
                    "type": "uint256"
                }
            ],
            "name": "Approval",
            "type": "event"
        },
        {
            "anonymous": false,
            "inputs": [
                {
                    "indexed": true,
                    "internalType": "address",
                    "name": "owner",
                    "type": "address"
                },
                {
                    "indexed": true,
                    "internalType": "address",
                    "name": "operator",
                    "type": "address"
                },
                {
                    "indexed": false,
                    "internalType": "bool",
                    "name": "approved",
                    "type": "bool"
                }
            ],
            "name": "ApprovalForAll",
            "type": "event"
        },
        {
            "anonymous": false,
            "inputs": [
                {
                    "indexed": true,
                    "internalType": "bytes32",
                    "name": "role",
                    "type": "bytes32"
                },
                {
                    "indexed": true,
                    "internalType": "bytes32",
                    "name": "previousAdminRole",
                    "type": "bytes32"
                },
                {
                    "indexed": true,
                    "internalType": "bytes32",
                    "name": "newAdminRole",
                    "type": "bytes32"
                }
            ],
            "name": "RoleAdminChanged",
            "type": "event"
        },
        {
            "anonymous": false,
            "inputs": [
                {
                    "indexed": true,
                    "internalType": "bytes32",
                    "name": "role",
                    "type": "bytes32"
                },
                {
                    "indexed": true,
                    "internalType": "address",
                    "name": "account",
                    "type": "address"
                },
                {
                    "indexed": true,
                    "internalType": "address",
                    "name": "sender",
                    "type": "address"
                }
            ],
            "name": "RoleGranted",
            "type": "event"
        },
        {
            "anonymous": false,
            "inputs": [
                {
                    "indexed": true,
                    "internalType": "bytes32",
                    "name": "role",
                    "type": "bytes32"
                },
                {
                    "indexed": true,
                    "internalType": "address",
                    "name": "account",
                    "type": "address"
                },
                {
                    "indexed": true,
                    "internalType": "address",
                    "name": "sender",
                    "type": "address"
                }
            ],
            "name": "RoleRevoked",
            "type": "event"
        },
        {
            "anonymous": false,
            "inputs": [
                {
                    "indexed": true,
                    "internalType": "address",
                    "name": "from",
                    "type": "address"
                },
                {
                    "indexed": true,
                    "internalType": "address",
                    "name": "to",
                    "type": "address"
                },
                {
                    "indexed": true,
                    "internalType": "uint256",
                    "name": "tokenId",
                    "type": "uint256"
                }
            ],
            "name": "Transfer",
            "type": "event"
        },
        {
            "inputs": [],
            "name": "DEFAULT_ADMIN_ROLE",
            "outputs": [
                {
                    "internalType": "bytes32",
                    "name": "",
                    "type": "bytes32"
                }
            ],
            "stateMutability": "view",
            "type": "function"
        },
        {
            "inputs": [],
            "name": "MINTER_ROLE",
            "outputs": [
                {
                    "internalType": "bytes32",
                    "name": "",
                    "type": "bytes32"
                }
            ],
            "stateMutability": "view",
            "type": "function"
        },
        {
            "inputs": [
                {
                    "internalType": "address",
                    "name": "to",
                    "type": "address"
                },
                {
                    "internalType": "uint256",
                    "name": "tokenId",
                    "type": "uint256"
                }
            ],
            "name": "approve",
            "outputs": [],
            "stateMutability": "nonpayable",
            "type": "function"
        },
        {
            "inputs": [
                {
                    "internalType": "address",
                    "name": "owner",
                    "type": "address"
                }
            ],
            "name": "balanceOf",
            "outputs": [
                {
                    "internalType": "uint256",
                    "name": "",
                    "type": "uint256"
                }
            ],
            "stateMutability": "view",
            "type": "function"
        },
        {
            "inputs": [
                {
                    "internalType": "uint256",
                    "name": "tokenId",
                    "type": "uint256"
                }
            ],
            "name": "getApproved",
            "outputs": [
                {
                    "internalType": "address",
                    "name": "",
                    "type": "address"
                }
            ],
            "stateMutability": "view",
            "type": "function"
        },
        {
            "inputs": [
                {
                    "internalType": "bytes32",
                    "name": "role",
                    "type": "bytes32"
                }
            ],
            "name": "getRoleAdmin",
            "outputs": [
                {
                    "internalType": "bytes32",
                    "name": "",
                    "type": "bytes32"
                }
            ],
            "stateMutability": "view",
            "type": "function"
        },
        {
            "inputs": [
                {
                    "internalType": "bytes32",
                    "name": "role",
                    "type": "bytes32"
                },
                {
                    "internalType": "address",
                    "name": "account",
                    "type": "address"
                }
            ],
            "name": "grantRole",
            "outputs": [],
            "stateMutability": "nonpayable",
            "type": "function"
        },
        {
            "inputs": [
                {
                    "internalType": "bytes32",
                    "name": "role",
                    "type": "bytes32"
                },
                {
                    "internalType": "address",
                    "name": "account",
                    "type": "address"
                }
            ],
            "name": "hasRole",
            "outputs": [
                {
                    "internalType": "bool",
                    "name": "",
                    "type": "bool"
                }
            ],
            "stateMutability": "view",
            "type": "function"
        },
        {
            "inputs": [
                {
                    "internalType": "address",
                    "name": "owner",
                    "type": "address"
                },
                {
                    "internalType": "address",
                    "name": "operator",
                    "type": "address"
                }
            ],
            "name": "isApprovedForAll",
            "outputs": [
                {
                    "internalType": "bool",
                    "name": "",
                    "type": "bool"
                }
            ],
            "stateMutability": "view",
            "type": "function"
        },
        {
            "inputs": [],
            "name": "name",
            "outputs": [
                {
                    "internalType": "string",
                    "name": "",
                    "type": "string"
                }
            ],
            "stateMutability": "view",
            "type": "function"
        },
        {
            "inputs": [
                {
                    "internalType": "uint256",
                    "name": "tokenId",
                    "type": "uint256"
                }
            ],
            "name": "ownerOf",
            "outputs": [
                {
                    "internalType": "address",
                    "name": "",
                    "type": "address"
                }
            ],
            "stateMutability": "view",
            "type": "function"
        },
        {
            "inputs": [
                {
                    "internalType": "bytes32",
                    "name": "role",
                    "type": "bytes32"
                },
                {
                    "internalType": "address",
                    "name": "callerConfirmation",
                    "type": "address"
                }
            ],
            "name": "renounceRole",
            "outputs": [],
            "stateMutability": "nonpayable",
            "type": "function"
        },
        {
            "inputs": [
                {
                    "internalType": "bytes32",
                    "name": "role",
                    "type": "bytes32"
                },
                {
                    "internalType": "address",
                    "name": "account",
                    "type": "address"
                }
            ],
            "name": "revokeRole",
            "outputs": [],
            "stateMutability": "nonpayable",
            "type": "function"
        },
        {
            "inputs": [
                {
                    "internalType": "address",
                    "name": "to",
                    "type": "address"
                }
            ],
            "name": "safeMint",
            "outputs": [],
            "stateMutability": "nonpayable",
            "type": "function"
        },
        {
            "inputs": [
                {
                    "internalType": "address",
                    "name": "from",
                    "type": "address"
                },
                {
                    "internalType": "address",
                    "name": "to",
                    "type": "address"
                },
                {
                    "internalType": "uint256",
                    "name": "tokenId",
                    "type": "uint256"
                }
            ],
            "name": "safeTransferFrom",
            "outputs": [],
            "stateMutability": "nonpayable",
            "type": "function"
        },
        {
            "inputs": [
                {
                    "internalType": "address",
                    "name": "from",
                    "type": "address"
                },
                {
                    "internalType": "address",
                    "name": "to",
                    "type": "address"
                },
                {
                    "internalType": "uint256",
                    "name": "tokenId",
                    "type": "uint256"
                },
                {
                    "internalType": "bytes",
                    "name": "data",
                    "type": "bytes"
                }
            ],
            "name": "safeTransferFrom",
            "outputs": [],
            "stateMutability": "nonpayable",
            "type": "function"
        },
        {
            "inputs": [
                {
                    "internalType": "address",
                    "name": "operator",
                    "type": "address"
                },
                {
                    "internalType": "bool",
                    "name": "approved",
                    "type": "bool"
                }
            ],
            "name": "setApprovalForAll",
            "outputs": [],
            "stateMutability": "nonpayable",
            "type": "function"
        },
        {
            "inputs": [
                {
                    "internalType": "bytes4",
                    "name": "interfaceId",
                    "type": "bytes4"
                }
            ],
            "name": "supportsInterface",
            "outputs": [
                {
                    "internalType": "bool",
                    "name": "",
                    "type": "bool"
                }
            ],
            "stateMutability": "view",
            "type": "function"
        },
        {
            "inputs": [],
            "name": "symbol",
            "outputs": [
                {
                    "internalType": "string",
                    "name": "",
                    "type": "string"
                }
            ],
            "stateMutability": "view",
            "type": "function"
        },
        {
            "inputs": [
                {
                    "internalType": "uint256",
                    "name": "tokenId",
                    "type": "uint256"
                }
            ],
            "name": "tokenURI",
            "outputs": [
                {
                    "internalType": "string",
                    "name": "",
                    "type": "string"
                }
            ],
            "stateMutability": "view",
            "type": "function"
        },
        {
            "inputs": [
                {
                    "internalType": "address",
                    "name": "from",
                    "type": "address"
                },
                {
                    "internalType": "address",
                    "name": "to",
                    "type": "address"
                },
                {
                    "internalType": "uint256",
                    "name": "tokenId",
                    "type": "uint256"
                }
            ],
            "name": "transferFrom",
            "outputs": [],
            "stateMutability": "nonpayable",
            "type": "function"
        }
    ],
    "bytecode": "608060405234801561000f575f80fd5b506040516115e93803806115e983398101604081905261002e9161019a565b6040518060400160405280600f81526020016e14dd185ad954995dd85c9915195cdd608a1b8152506040518060400160405280600681526020016514d4951154d560d21b815250815f90816100839190610263565b5060016100908282610263565b5061009f91505f9050836100d2565b506100ca7f9f2df0fed2c77648de5860a4cc508cd0818c85b8b8a1ab4ceeef8d981c8956a6826100d2565b50505061031d565b5f8281526006602090815260408083206001600160a01b038516845290915281205460ff16610176575f8381526006602090815260408083206001600160a01b03861684529091529020805460ff1916600117905561012e3390565b6001600160a01b0316826001600160a01b0316847f2f8788117e7eff1d82e926ec794901d17c78024a50270940304540a733656f0d60405160405180910390a4506001610179565b505f5b92915050565b80516001600160a01b0381168114610195575f80fd5b919050565b5f80604083850312156101ab575f80fd5b6101b48361017f565b91506101c26020840161017f565b90509250929050565b634e487b7160e01b5f52604160045260245ffd5b600181811c908216806101f357607f821691505b60208210810361021157634e487b7160e01b5f52602260045260245ffd5b50919050565b601f82111561025e57805f5260205f20601f840160051c8101602085101561023c5750805b601f840160051c820191505b8181101561025b575f8155600101610248565b50505b505050565b81516001600160401b0381111561027c5761027c6101cb565b6102908161028a84546101df565b84610217565b6020601f8211600181146102c2575f83156102ab5750848201515b5f19600385901b1c1916600184901b17845561025b565b5f84815260208120601f198516915b828110156102f157878501518255602094850194600190920191016102d1565b508482101561030e57868401515f19600387901b60f8161c191681555b50505050600190811b01905550565b6112bf8061032a5f395ff3fe608060405234801561000f575f80fd5b5060043610610132575f3560e01c80636352211e116100b4578063a22cb46511610079578063a22cb4651461028a578063b88d4fde1461029d578063c87b56dd146102b0578063d5391393146102c3578063d547741f146102ea578063e985e9c5146102fd575f80fd5b80636352211e1461024257806370a082311461025557806391d148541461026857806395d89b411461027b578063a217fddf14610283575f80fd5b8063248a9ca3116100fa578063248a9ca3146101c65780632f2ff15d146101f657806336568abe1461020957806340d097c31461021c57806342842e0e1461022f575f80fd5b806301ffc9a71461013657806306fdde031461015e578063081812fc14610173578063095ea7b31461019e57806323b872dd146101b3575b5f80fd5b610149610144366004610f27565b610310565b60405190151581526020015b60405180910390f35b610166610320565b6040516101559190610f70565b610186610181366004610f82565b6103af565b6040516001600160a01b039091168152602001610155565b6101b16101ac366004610fb4565b6103d6565b005b6101b16101c1366004610fdc565b6103e5565b6101e86101d4366004610f82565b5f9081526006602052604090206001015490565b604051908152602001610155565b6101b1610204366004611016565b610473565b6101b1610217366004611016565b610497565b6101b161022a366004611040565b6104cf565b6101b161023d366004610fdc565b610519565b610186610250366004610f82565b610533565b6101e8610263366004611040565b61053d565b610149610276366004611016565b610582565b6101666105ac565b6101e85f81565b6101b1610298366004611059565b6105bb565b6101b16102ab3660046110a6565b6105c6565b6101666102be366004610f82565b6105dd565b6101e87f9f2df0fed2c77648de5860a4cc508cd0818c85b8b8a1ab4ceeef8d981c8956a681565b6101b16102f8366004611016565b61064e565b61014961030b366004611183565b610672565b5f61031a8261069f565b92915050565b60605f805461032e906111ab565b80601f016020809104026020016040519081016040528092919081815260200182805461035a906111ab565b80156103a55780601f1061037c576101008083540402835291602001916103a5565b820191905f5260205f20905b81548152906001019060200180831161038857829003601f168201915b5050505050905090565b5f6103b9826106c3565b505f828152600460205260409020546001600160a01b031661031a565b6103e18282336106fb565b5050565b6001600160a01b03821661041357604051633250574960e11b81525f60048201526024015b60405180910390fd5b5f61041f838333610708565b9050836001600160a01b0316816001600160a01b03161461046d576040516364283d7b60e01b81526001600160a01b038086166004830152602482018490528216604482015260640161040a565b50505050565b5f8281526006602052604090206001015461048d816107fa565b61046d8383610807565b6001600160a01b03811633146104c05760405163334bd91960e11b815260040160405180910390fd5b6104ca8282610898565b505050565b7f9f2df0fed2c77648de5860a4cc508cd0818c85b8b8a1ab4ceeef8d981c8956a66104f9816107fa565b600780545f9182610509836111e3565b9190505590506104ca8382610903565b6104ca83838360405180602001604052805f8152506105c6565b5f61031a826106c3565b5f6001600160a01b038216610567576040516322718ad960e21b81525f600482015260240161040a565b506001600160a01b03165f9081526003602052604090205490565b5f9182526006602090815260408084206001600160a01b0393909316845291905290205460ff1690565b60606001805461032e906111ab565b6103e133838361091c565b6105d18484846103e5565b61046d848484846109ba565b60606105e8826106c3565b505f6105fe60408051602081019091525f815290565b90505f81511161061c5760405180602001604052805f815250610647565b8061062684610ae0565b60405160200161063792919061121e565b6040516020818303038152906040525b9392505050565b5f82815260066020526040902060010154610668816107fa565b61046d8383610898565b6001600160a01b039182165f90815260056020908152604080832093909416825291909152205460ff1690565b5f6001600160e01b03198216637965db0b60e01b148061031a575061031a82610b70565b5f818152600260205260408120546001600160a01b03168061031a57604051637e27328960e01b81526004810184905260240161040a565b6104ca8383836001610bbf565b5f828152600260205260408120546001600160a01b039081169083161561073457610734818486610cc3565b6001600160a01b0381161561076e5761074f5f855f80610bbf565b6001600160a01b0381165f90815260036020526040902080545f190190555b6001600160a01b0385161561079c576001600160a01b0385165f908152600360205260409020805460010190555b5f8481526002602052604080822080546001600160a01b0319166001600160a01b0389811691821790925591518793918516917fddf252ad1be2c89b69c2b068fc378daa952ba7f163c4a11628f55a4df523b3ef91a4949350505050565b6108048133610d27565b50565b5f6108128383610582565b610891575f8381526006602090815260408083206001600160a01b03861684529091529020805460ff191660011790556108493390565b6001600160a01b0316826001600160a01b0316847f2f8788117e7eff1d82e926ec794901d17c78024a50270940304540a733656f0d60405160405180910390a450600161031a565b505f61031a565b5f6108a38383610582565b15610891575f8381526006602090815260408083206001600160a01b0386168085529252808320805460ff1916905551339286917ff6391f5c32d9c69d2a47ea670b442974b53935d1edc7fd64eb21e047a839171b9190a450600161031a565b6103e1828260405180602001604052805f815250610d60565b6001600160a01b03821661094e57604051630b61174360e31b81526001600160a01b038316600482015260240161040a565b6001600160a01b038381165f81815260056020908152604080832094871680845294825291829020805460ff191686151590811790915591519182527f17307eab39ab6107e8899845ad3d59bd9653f200f220920489ca2b5937696c31910160405180910390a3505050565b6001600160a01b0383163b1561046d57604051630a85bd0160e11b81526001600160a01b0384169063150b7a02906109fc903390889087908790600401611232565b6020604051808303815f875af1925050508015610a36575060408051601f3d908101601f19168201909252610a339181019061126e565b60015b610a9d573d808015610a63576040519150601f19603f3d011682016040523d82523d5f602084013e610a68565b606091505b5080515f03610a9557604051633250574960e11b81526001600160a01b038516600482015260240161040a565b805181602001fd5b6001600160e01b03198116630a85bd0160e11b14610ad957604051633250574960e11b81526001600160a01b038516600482015260240161040a565b5050505050565b60605f610aec83610d76565b60010190505f8167ffffffffffffffff811115610b0b57610b0b611092565b6040519080825280601f01601f191660200182016040528015610b35576020820181803683370190505b5090508181016020015b5f19016f181899199a1a9b1b9c1cb0b131b232b360811b600a86061a8153600a8504945084610b3f57509392505050565b5f6001600160e01b031982166380ac58cd60e01b1480610ba057506001600160e01b03198216635b5e139f60e01b145b8061031a57506301ffc9a760e01b6001600160e01b031983161461031a565b8080610bd357506001600160a01b03821615155b15610c94575f610be2846106c3565b90506001600160a01b03831615801590610c0e5750826001600160a01b0316816001600160a01b031614155b8015610c215750610c1f8184610672565b155b15610c4a5760405163a9fbf51f60e01b81526001600160a01b038416600482015260240161040a565b8115610c925783856001600160a01b0316826001600160a01b03167f8c5be1e5ebec7d5bd14f71427d1e84f3dd0314c0f7b2291e5b200ac8c7c3b92560405160405180910390a45b505b50505f90815260046020526040902080546001600160a01b0319166001600160a01b0392909216919091179055565b610cce838383610e4d565b6104ca576001600160a01b038316610cfc57604051637e27328960e01b81526004810182905260240161040a565b60405163177e802f60e01b81526001600160a01b03831660048201526024810182905260440161040a565b610d318282610582565b6103e15760405163e2517d3f60e01b81526001600160a01b03821660048201526024810183905260440161040a565b610d6a8383610eb1565b6104ca5f8484846109ba565b5f8072184f03e93ff9f4daa797ed6e38ed64bf6a1f0160401b8310610db45772184f03e93ff9f4daa797ed6e38ed64bf6a1f0160401b830492506040015b6d04ee2d6d415b85acef81000000008310610de0576d04ee2d6d415b85acef8100000000830492506020015b662386f26fc100008310610dfe57662386f26fc10000830492506010015b6305f5e1008310610e16576305f5e100830492506008015b6127108310610e2a57612710830492506004015b60648310610e3c576064830492506002015b600a831061031a5760010192915050565b5f6001600160a01b03831615801590610ea95750826001600160a01b0316846001600160a01b03161480610e865750610e868484610672565b80610ea957505f828152600460205260409020546001600160a01b038481169116145b949350505050565b6001600160a01b038216610eda57604051633250574960e11b81525f600482015260240161040a565b5f610ee683835f610708565b90506001600160a01b038116156104ca576040516339e3563760e11b81525f600482015260240161040a565b6001600160e01b031981168114610804575f80fd5b5f60208284031215610f37575f80fd5b813561064781610f12565b5f81518084528060208401602086015e5f602082860101526020601f19601f83011685010191505092915050565b602081525f6106476020830184610f42565b5f60208284031215610f92575f80fd5b5035919050565b80356001600160a01b0381168114610faf575f80fd5b919050565b5f8060408385031215610fc5575f80fd5b610fce83610f99565b946020939093013593505050565b5f805f60608486031215610fee575f80fd5b610ff784610f99565b925061100560208501610f99565b929592945050506040919091013590565b5f8060408385031215611027575f80fd5b8235915061103760208401610f99565b90509250929050565b5f60208284031215611050575f80fd5b61064782610f99565b5f806040838503121561106a575f80fd5b61107383610f99565b915060208301358015158114611087575f80fd5b809150509250929050565b634e487b7160e01b5f52604160045260245ffd5b5f805f80608085870312156110b9575f80fd5b6110c285610f99565b93506110d060208601610f99565b925060408501359150606085013567ffffffffffffffff8111156110f2575f80fd5b8501601f81018713611102575f80fd5b803567ffffffffffffffff81111561111c5761111c611092565b604051601f8201601f19908116603f0116810167ffffffffffffffff8111828210171561114b5761114b611092565b604052818152828201602001891015611162575f80fd5b816020840160208301375f6020838301015280935050505092959194509250565b5f8060408385031215611194575f80fd5b61119d83610f99565b915061103760208401610f99565b600181811c908216806111bf57607f821691505b6020821081036111dd57634e487b7160e01b5f52602260045260245ffd5b50919050565b5f6001820161120057634e487b7160e01b5f52601160045260245ffd5b5060010190565b5f81518060208401855e5f93019283525090919050565b5f610ea961122c8386611207565b84611207565b6001600160a01b03858116825284166020820152604081018390526080606082018190525f9061126490830184610f42565b9695505050505050565b5f6020828403121561127e575f80fd5b815161064781610f1256fea2646970667358221220b03e23b42c8637788daf1ddbc746d14278b6846488f0879d54a529009f62c4e364736f6c634300081a0033",
    "sourcePath": "/Users/marco/Dev/Projects/Nodejs/Hardhat_NexGami/contracts/NFTs/StakeRewardTest.sol",
    "compiler": {
        "name": "solc",
        "version": "0.8.26+commit.8a97fa7a"
    },
    "functionHashes": {
        "DEFAULT_ADMIN_ROLE()": "a217fddf",
        "MINTER_ROLE()": "d5391393",
        "approve(address,uint256)": "095ea7b3",
        "balanceOf(address)": "70a08231",
        "getApproved(uint256)": "081812fc",
        "getRoleAdmin(bytes32)": "248a9ca3",
        "grantRole(bytes32,address)": "2f2ff15d",
        "hasRole(bytes32,address)": "91d14854",
        "isApprovedForAll(address,address)": "e985e9c5",
        "name()": "06fdde03",
        "ownerOf(uint256)": "6352211e",
        "renounceRole(bytes32,address)": "36568abe",
        "revokeRole(bytes32,address)": "d547741f",
        "safeMint(address)": "40d097c3",
        "safeTransferFrom(address,address,uint256)": "42842e0e",
        "safeTransferFrom(address,address,uint256,bytes)": "b88d4fde",
        "setApprovalForAll(address,bool)": "a22cb465",
        "supportsInterface(bytes4)": "01ffc9a7",
        "symbol()": "95d89b41",
        "tokenURI(uint256)": "c87b56dd",
        "transferFrom(address,address,uint256)": "23b872dd"
    },
    "gasEstimates": {
        "creation": {
            "codeDepositCost": "959800",
            "executionCost": "infinite",
            "totalCost": "infinite"
        },
        "external": {
            "DEFAULT_ADMIN_ROLE()": "304",
            "MINTER_ROLE()": "282",
            "approve(address,uint256)": "31531",
            "balanceOf(address)": "2630",
            "getApproved(uint256)": "infinite",
            "getRoleAdmin(bytes32)": "2464",
            "grantRole(bytes32,address)": "infinite",
            "hasRole(bytes32,address)": "2718",
            "isApprovedForAll(address,address)": "infinite",
            "name()": "infinite",
            "ownerOf(uint256)": "infinite",
            "renounceRole(bytes32,address)": "29091",
            "revokeRole(bytes32,address)": "infinite",
            "safeMint(address)": "infinite",
            "safeTransferFrom(address,address,uint256)": "infinite",
            "safeTransferFrom(address,address,uint256,bytes)": "infinite",
            "setApprovalForAll(address,bool)": "26678",
            "supportsInterface(bytes4)": "infinite",
            "symbol()": "infinite",
            "tokenURI(uint256)": "infinite",
            "transferFrom(address,address,uint256)": "infinite"
        }
    }
}